S01500006A636861763032375F6C6162342E73726563A8
S113000045C0000060C000005EC000005CC000008D
S11300105AC0000058C0000056C0000054C0000080
S113002052C0000050C000004EC000004CC0000090
S11300304AC0000022C1000046C0000044C00000C5
S113004042C0000040C000003EC000003CC00000B0
S11300503AC0000038C0000036C0000034C00000C0
S113006032C0000030C000002EC000002CC00000D0
S11300702AC0000028C0000026C0000024C00000E0
S113008022C0000020C000001EC0000011241FBEBA
S1130090CFEFD0E4DEBFCDBF11E0A0E0B1E0E8E9EE
S11300A0F4E000E00BBF02C007900D92AE30B10740
S11300B0D9F721E0AEE0B1E001C01D92AE32B20743
S11300C0E1F788D1E7C19CCF809101018230F1F042
S11300D028F4882341F08130B1F034C0833029F111
S11300E0843031F12FC080911101909112018C392B
S11300F09105D8F122E020930101C29750F584E0E4
S11301008093010135C01092010136C08091110124
S1130110909112018B399105E0F481E08093010103
S113012080910301882389F027C01092010124C023
S11301308091110190911201C397D0F083E08093D4
S113014001011AC01092010117C081E080930301DC
S113015013C08091030188237CF0880F80930301EE
S11301600BC086958093030107C0C29740F204C078
S1130170809103018230A8F78091030188B980E05F
S113018090E00895809100018230F1F028F48823F2
S113019041F08130B1F030C0833009F1843011F185
S11301A02BC080910F01909110018B35910598F12E
S11301B022E020930001CC9710F584E080930001A5
S11301C02DC0109200012EC080910F01909110015A
S11301D08A359105A0F481E08093000123C0109238
S11301E0000120C080910F0190911001CD97B0F0D3
S11301F083E08093000116C01092000113C0809127
S11302000201803178F4880F809302010BC0869537
S11302108093020107C0CC9780F204C08091020150
S11302208230A8F78091020180958BB980E090E03C
S113023008958BE0809381008DE790E0909389008E
S11302408093880082E080936F0010928500109262
S113025084008091090190910A01A0910B01B09151
S11302600C018093130190931401A0931501B09392
S113027016018FB780688FBF08951F920F920FB633
S11302800F9211248F939F93AF93BF938091130187
S113029090911401A0911501B09116010197A10943
S11302A0B1098093130190931401A0931501B093A5
S11302B01601892B8A2B8B2B99F481E080931701EB
S11302C08091090190910A01A0910B01B0910C0158
S11302D08093130190931401A0931501B093160118
S11302E0BF91AF919F918F910F900FBE0F901F9070
S11302F01895EAE7F0E08081806E80830895883065
S113030060F0ECE7F0E0808180838FE000008150B2
S1130310E9F78FE080930E01089580937C00F5CF78
S1130320EF92FF921F93CF93DF938091080188236C
S113033009F44AC010E0C12FD0E0FE01EE0FFF1F08
S1130340EC5FFE4FE080F180D70115964D915D91F1
S11303506D917C91189711968D919D910D90BC9102
S1130360A02D481759076A077B07B9F4F701808164
S11303700184F285E02D082E000C990B0995D70114
S11303808C93FE01EE0FFF1FEC5FFE4F0190F08196
S1130390E02D1582168217821086CC0FDD1FCC5FEC
S11303A0DE4FE881F98185819681A781B0850A961F
S11303B0A11DB11D85839683A783B0871F5F80919C
S11303C00801181708F4B7CFDF91CF911F91FF9060
S11303D0EF90089511B8CFEFC2B9C7B918B8CAB928
S11303E01BB80F2EFAE0CF2ED12CE12CF12CF02DDE
S11303F0C0920901D0920A01E0920B01F0920C0123
S1130400C0921301D0921401E0921501F0921601EA
S113041010DFE8E1F1E081819281A381B4818583D9
S11304209683A783B087C182D282E382F482C08399
S113043084E690E092878187E3E2F1E08181928112
S1130440A381B48185839683A783B087C182D28236
S1130450E382F482C08382EC90E09287818749DF53
S1130460C8E7D0E080E04BDF888199819093120146
S11304708093110181E043DF888199819093100179
S113048080930F014DDF809117018823E1F31092CF
S10B04901701E8CFF894FFCF37
S1110498FFFF01011801230102010000000012
S9030000FC
