S01500006A636861763032375F6C6162372E73726563A5
S113000045C0000060C000005EC000005CC000008D
S11300105AC0000058C0000056C0000054C0000080
S113002052C0000050C000004EC000004CC0000090
S11300304AC000005AC3000046C0000044C000008B
S113004042C0000040C000003EC000003CC00000B0
S11300503AC0000038C0000036C0000034C00000C0
S113006032C0000030C000002EC000002CC00000D0
S11300702AC0000028C0000026C0000024C00000E0
S113008022C0000020C000001EC0000011241FBEBA
S1130090CFEFD0E4DEBFCDBF11E0A0E0B1E0EAECE9
S11300A0FDE000E00BBF02C007900D92A431B10740
S11300B0D9F727E0A4E1B1E001C01D92A035B20751
S11300C0E1F70FD180C69CCFCF93DF93EC0160D4CE
S11300D02091140130911501CE01820F931F8C3DA4
S11300E045E0940758F42817390758F4E901CA5E23
S11300F0DE4F909315018093140105C0C0E0D0E059
S113010002C0C0E0D0E00BD5CE01DF91CF910895BD
S11301100895813081F0E1ECF0E080818861808392
S1130120E2ECF0E080818660808383E38093C40006
S11301301092C5000895E9ECF0E080818861808325
S1130140EAECF0E080818660808383E38093CC00D6
S11301501092CD000895813029F48091C80088233D
S113016084F008958091C0008823ACF4A6ECB0E03C
S1130170E0ECF0E08C918093F20680818823D4F344
S11301800895AEECB0E0E8ECF0E08C918093F206D8
S113019080818823D4F30895613041F0E0ECF0E0ED
S11301A0908195FFFDCF8093C6000895E8ECF0E0C0
S11301B0908195FFFDCF8093CE000895813041F06A
S11301C0E0ECF0E080818823ECF78091C60008958C
S11301D0E8ECF0E080818823ECF78091CE0008956C
S11301E080914F07813041F018F08230F9F02EC031
S11301F081E080934F0731C018B88091C0008823F4
S11302002CF08091F3068F5F8093F3068091F306C0
S11302108530E1F41092F30684E690E090930101B6
S11302208093000182E080934F0725C081E088B964
S11302308091C000882354F48CE390E090930101F2
S11302408093000181E080934F0707C080914F079E
S1130250813019F0823079F008958091C0008823AC
S1130260BCF480E0ABDF8093F40680E074DF80911F
S1130270F40682B9089561E08091F4068DDF8091DF
S1130280F40682B99091F40681E089278093F406FC
S1130290089510924F07A4DF80910001909101010D
S11302A0BFD4F9CFAF92BF92CF92DF92EF92FF9279
S11302B00F93A12CB12CC12CD12CE12CF12C082FA3
S11302C020E030E045E550E064E071E089E491E04D
S11302D043D20F91FF90EF90DF90CF90BF90AF90FB
S11302E008958FEF81B912B887B918B81AB88BB9C5
S11302F014B885B980E00DDF81E00BDF81E0D2DF47
S11303001ED380E090E00895FC01039692838183DC
S11303102FEF3FEF348323839683858390878783EE
S113032010820895FC01118610860895CF93DF93FF
S1130330FC01DB0121813281E9018A819B811396D1
S11303409C938E9312978181928115969C938E93A0
S113035014978A819B81EC017D836C83E9017B8303
S11303606A83728361831996FC93EE931897808154
S11303708F5F8083DF91CF910895CF93DF93EB015B
S1130380488159814F3F2FEF520731F4DC01179612
S1130390ED91FC91189717C0FC013396DC0115967A
S11303A02D913C911697D9012D913C9142175307F9
S11303B050F00280F381E02DA281B3812D913C9114
S11303C042175307B0F7A281B381BB83AA83159662
S11303D0DC93CE931497FD83EC83D383C2839987F4
S11303E08887FC0120812F5F2083DF91CF910895BE
S11303F0FC01A281B3818481958115969C938E938F
S11304001497A481B5818281938113969C938E93D2
S11304101297A085B18511968D919C9112978E1794
S11304209F0731F48481958112969C938E93119742
S1130430118610868C9181508C93089531E1FC01D2
S11304403083319722E220833197A3E3A08331974D
S113045060833197708331971082319760E86083AD
S113046031971082319762E06083319763E0608353
S1130470319764E06083319765E06083319766E08B
S11304806083319767E06083319768E060833197D8
S113049069E06083319760E16083319730833197FD
S11304A032E13083319733E13083319734E1308363
S11304B0319735E13083319736E13083319737E135
S11304C03083319738E13083319739E13083319784
S11304D030E23083319731E2308331972083319792
S11304E023E220833197408331975083319726E26A
S11304F02083319727E22083319728E220833197A4
S113050029E22083319720E32083319721E320835C
S113051086970895109289008CE7809388008BE079
S113052080938100EFE6F0E0808182608083A09177
S11305304D07B0914E07CD91CDBFDD91DEBFFF9148
S1130540EF91DF91CF91BF91AF919F918F917F9167
S11305506F915F914F913F912F911F910F91FF9058
S1130560EF90DF90CF90BF90AF909F908F907F904F
S11305706F905F904F903F902F901F900F900FBE01
S11305800F90089581E008950F920FB6F8940F929A
S11305901F9211242F923F924F925F926F927F92FB
S11305A08F929F92AF92BF92CF92DF92EF92FF927F
S11305B00F931F932F933F934F935F936F937F9367
S11305C08F939F93AF93BF93CF93DF93EF93FF9357
S11305D0A0914D07B0914E070DB60D920EB60D9237
S11305E070D3A0914D07B0914E07CD91CDBFDD9151
S11305F0DEBFFF91EF91DF91CF91BF91AF919F91BA
S11306008F917F916F915F914F913F912F911F91A6
S11306100F91FF90EF90DF90CF90BF90AF909F909D
S11306208F907F906F905F904F903F902F901F908E
S11306300F900FBE0F9008950F920FB6F8940F927B
S11306401F9211242F923F924F925F926F927F924A
S11306508F929F92AF92BF92CF92DF92EF92FF92CE
S11306600F931F932F933F934F935F936F937F93B6
S11306708F939F93AF93BF93CF93DF93EF93FF93A6
S1130680A0914D07B0914E070DB60D920EB60D9286
S113069085D117D3A0914D07B0914E07CD91CDBF11
S11306A0DD91DEBFFF91EF91DF91CF91BF91AF91CB
S11306B09F918F917F916F915F914F913F912F9176
S11306C01F910F91FF90EF90DF90CF90BF90AF906C
S11306D09F908F907F906F905F904F903F902F905E
S11306E01F900F900FBE0F900895A6DF1895CF931B
S11306F0DF93EC01E0914D07F0914E0793838283E1
S11307008091FD069091FE06C817D90760F46091A8
S11307104D0770914E0780911307909114076E5FF7
S11307207F4F2BDE16C060914D0770914E0780916C
S11307301507909116076E5F7F4F1FDE80910201AF
S113074090910301C817D90720F4D0930301C093F3
S11307500201DF91CF9108954F925F926F927F9241
S11307608F929F92AF92BF92CF92DF92EF92FF92BD
S11307700F931F93CF93DF935C014B013A0129013F
S113078081E290E0A1DCEC01892B09F4C6C0C1141C
S1130790D10409F0BEC0C30197DC988F8F8B0097FA
S11307A019F4CE01B5DCB9C0A30165EA70E0F5D255
S11307B09301215031098F89988D3C01620E731E7B
S11307C048E050E0B401CE014996EED218A2102FB1
S11307D0043008F013E01E8B6E0182E0C80ED11CB9
S11307E0C601A0DDCE010C969DDDD987C88784E0C3
S11307F090E0811B91099D878C87DB8BCA8BA201BA
S1130800B501C3011BDE99838883E114F10419F057
S1130810F701D183C0830FB6F8940F928091FF063D
S11308208F5F8093FF0680914D0790914E07892B2F
S113083069F5D0934E07C0934D078091FF06813030
S1130840A1F589E297E060DD82E397E05DDD8BE36B
S113085097E05ADD84E497E057DD80E297E054DDC9
S113086087E197E051DD8AE097E04EDD81E097E093
S11308704BDD80E297E0909316078093150787E19C
S113088097E090931407809313070FC08091FA06A2
S113089081110BC0E0914D07F0914E07868908172E
S11308A020F0D0934E07C0934D078E899091FC069B
S11308B0981710F48093FC069091F5069F5F90932F
S11308C0F5069091FB06981710F48093FB0690E0D0
S11308D09C01220F331F220F331F220F331F820F5D
S11308E0931FB601875D984F21DD0F900FBE809155
S11308F0FA06882351F0E0914D07F0914E0786895E
S1130900801728F441DE81E009C081E007C081E05E
S113091005C0D88ECF8AC60147CF8FEFDF91CF9124
S11309201F910F91FF90EF90DF90CF90BF90AF9009
S11309309F908F907F906F905F904F900895AF92AB
S1130940BF92CF92DF92EF92FF920F93A12CB12C22
S1130950C12CD12CE12CF12C00E020E030E045E565
S113096050E06FE071E08BE296E0F6DE813041F416
S1130970F8948093FA061092FE061092FD06CADDE2
S11309800F91FF90EF90DF90CF90BF90AF900895BC
S11309908091F9068F5F8093F90608950F931F9352
S11309A0CF93DF938091F9068111AFC08091FD064A
S11309B09091FE0601969093FE068093FD06809129
S11309C0FD069091FE06892B99F58091150790916B
S11309D016072091130730911407309316072093BC
S11309E0150790931407809313078091F6068F5F81
S11309F08093F606E0911507F09116078081811126
S1130A0007C08FEF9FEF909303018093020110C002
S1130A10E0911507F09116070580F681E02D068018
S1130A20F781E02D828193819093030180930201E9
S1130A302091FD063091FE06809102019091030100
S1130A402817390708F466C0E0911507F0911607D6
S1130A508081882399F0E0911507F09116070580AD
S1130A60F681E02DC681D7818A819B812091FD0684
S1130A703091FE0628173907F8F419C08FEF9FEF5D
S1130A80909303018093020145C0E0911507F09112
S1130A9016070580F681E02DC681D7818A819B8166
S1130AA02091FD063091FE062817390728F490930B
S1130AB00301809302012EC08E010E5F1F4FC801F7
S1130AC097DC8C899D89892B19F0CE010C9690DCDA
S1130AD02E898091FB06821710F42093FB0630E0E8
S1130AE0C901880F991F880F991F880F991F820FBA
S1130AF0931FB801875D984F19DCE0911507F091B9
S1130B00160780818111C1CFB9CF8091F8068F5F1C
S1130B108093F806DF91CF911F910F910895CF92A2
S1130B20DF92EF92FF920F931F93CF93DF930FB651
S1130B30F8940F928091F90681508093F906809180
S1130B40F90681115FC08091FF0681112FC05DC03D
S1130B50D7011596ED91FC911697C681D781CE01E8
S1130B600C9646DC8E010E5F1F4FC80141DC2E89B6
S1130B708091FB06821710F42093FB0630E0C90134
S1130B80880F991F880F991F880F991F820F931F31
S1130B90B801875D984FCADBE0914D07F0914E078D
S1130BA09E898689981758F0DC2C09C0D12C0F2E09
S1130BB0FAE0EF2EF7E0FF2EF02DCC24C394F701DA
S1130BC080818111C5CF8091F806882379F08091C6
S1130BD0F806882391F0E2DE8091F8068150809334
S1130BE0F8068091F8068111F6CF07C0F1E0DF1610
S1130BF021F08091F706813039F41092F706C4DCB5
S1130C0081E003C080E001C080E00F900FBEDF915F
S1130C10CF911F910F91FF90EF90DF90CF900895A7
S1130C20CF93DF93EC01892B91F0B2DE8091FD0626
S1130C309091FE06C80FD91F80914D0790914E07E1
S1130C400296D6DBCE0153DD6ADF811101C09CDC44
S1130C50DF91CF9108950F2EF1E0EF2EF7E0FF2EF4
S1130C60F02DC9E2D7E080910007882329F190DEB6
S1130C70D7011C9154DF1123F9F00FB6F8940F92A9
S1130C80D7011596ED91FC91169706811781C8013D
S1130C900296AEDB8091FF0681508093FF0680911F
S1130CA000078150809300070F900FBEF8018789D9
S1130CB0908D2EDAC8012CDA88818230A0F264DCAF
S1130CC0D2CF8091F906811113C08091FB0690E088
S1130CD0FC01EE0FFF1FEE0FFF1FEE0FFF1F8E0F25
S1130CE09F1FFC01E75DF84F8081882329F01BC01A
S1130CF081E08093F70608958091FB0681508093EC
S1130D00FB068091FB0690E0FC01EE0FFF1FEE0F47
S1130D10FF1FEE0FFF1F8E0F9F1FFC01E75DF84FB3
S1130D208081882349F38091FB0690E09C01220F87
S1130D30331F220F331F220F331F280F391FD901EE
S1130D40A75DB84F1196ED91FC9112970280F38143
S1130D50E02D1296FC93EE931197245D384FE21721
S1130D60F30729F422813381FD0132832183FC01BD
S1130D70EE0FFF1FEE0FFF1FEE0FFF1F8E0F9F1FC3
S1130D80FC01E75DF84F0180F281E02D86819781B7
S1130D9090934E0780934D070895DC0101C06D9335
S1130DA041505040E0F70895FB01DC0141505040B0
S1130DB048F001900D920020C9F701C01D924150E6
S10D0DC05040E0F70895F894FFCFC7
S1130DCA6400FFFF4C45445365635461736B0049E7
S1070DDA444C45003C
S9030000FC
