:100000004CC0000067C0000065C0000063C0000075
:1000100061C000005FC000005DC000005BC0000068
:1000200059C0000057C0000055C0000053C0000078
:1000300051C0000074C000004DC000004BC0000063
:1000400049C0000047C0000045C0000043C0000098
:1000500041C000003FC000003DC000003BC00000A8
:1000600039C0000037C0000035C0000033C00000B8
:1000700031C000002FC000002DC000002BC00000C8
:1000800029C0000027C0000025C000001A011F0180
:10009000ED00FA00010108010F0111241FBECFEF8E
:1000A000D0E4DEBFCDBF11E0A0E0B1E0EAEDF3E0C7
:1000B00000E00BBF02C007900D92AA30B107D9F73C
:1000C00021E0AAE0B1E001C01D92AA31B207E1F738
:1000D00044D181C195CF8BE0809381008DE790E082
:1000E000909389008093880082E080936F00109243
:1000F0008500109284008091050190910601A091E5
:100100000701B091080180930A0190930B01A0931D
:100110000C01B0930D018FB780688FBF08951F92B7
:100120000F920FB60F9211248F939F93AF93BF93AB
:1001300080910A0190910B01A0910C01B0910D01E9
:100140000197A109B10980930A0190930B01A09333
:100150000C01B0930D01892B8A2B8B2B99F481E034
:1001600080930E018091050190910601A0910701F5
:10017000B091080180930A0190930B01A0930C01A8
:10018000B0930D01BF91AF919F918F910F900FBED2
:100190000F901F90189527E030E058E0E82FF0E02E
:1001A00058B948B1BF01022E02C0759567950A94EF
:1001B000E2F7962F9170942B98B9429A2150310909
:1001C00078F7419A18B8089501968730910508F09C
:1001D00050C08A5B9F4FFC01F5C0009902C0019B93
:1001E00048C0009902C0019930C0009B28C0019B03
:1001F00036C025C0009942C0019B3BC085E090E01D
:10020000089500993EC0019B34C085E090E00895B8
:1002100000993AC0019B2DC085E090E008950099B7
:1002200002C0019B26C0009B32C0019908C085E036
:1002300090E008951092000180E090E00895809190
:100240000001A9DF81E090E00895809100018F3FD7
:1002500009F18F5F8093000182E090E00895809122
:1002600000018823D1F081508093000183E090E069
:1002700008951092000184E090E0089585E090E0F8
:10028000089585E090E0089585E090E0089585E088
:1002900090E0089582E090E0089583E090E0089572
:1002A000EF92FF921F93CF93DF93809103018823F6
:1002B00009F44DC010E0C12FD0E0FE01EE0FFF1F8A
:1002C000EF5FFE4FE080F180D70115964D915D9173
:1002D0006D917C91189711968D919D910D90BC9187
:1002E000A02D481759076A077B07B9F4F7018081E9
:1002F0000184F285E02D082E000C990B0995D70199
:100300008C93FE01EE0FFF1FEF5FFE4F0190F08117
:10031000E02D1582168217821086CC0FDD1FCF5F6D
:10032000DE4FE881F9812091040185819681A781C2
:10033000B085820F911DA11DB11D85839683A78372
:10034000B0871F5F80910301181708F4B4CFDF91C5
:10035000CF911F91FF90EF90089511B8CFEFC2B9E0
:10036000C7B918B88091040190E0A0E0B0E0809394
:10037000050190930601A0930701B09308018093B3
:100380000A0190930B01A0930C01B0930D01A3DE21
:10039000EFE0F1E081819281A381B481858396832E
:1003A000A783B0878091040190E0A0E0B0E0818352
:1003B0009283A383B483C08384EE90E09287818785
:1003C0006FDFFECFEE0FFF1F0024001C0BBE079057
:0A03D000F691E02D0994F894FFCF98
:0A03DA00FF0F010105010000000003
:00000001FF
