:1000000045C0000060C000005EC000005CC0000091
:100010005AC0000058C0000056C0000054C0000084
:1000200052C0000050C000004EC000004CC0000094
:100030004AC000004EC3000046C0000044C000009B
:1000400042C0000040C000003EC000003CC00000B4
:100050003AC0000038C0000036C0000034C00000C4
:1000600032C0000030C000002EC000002CC00000D4
:100070002AC0000028C0000026C0000024C00000E4
:1000800022C0000020C000001EC0000011241FBEBE
:10009000CFEFD0E4DEBFCDBF11E0A0E0B1E0E2EBF6
:1000A000FDE000E00BBF02C007900D92A233B10744
:1000B000D9F727E0A2E3B1E001C01D92AE36B20746
:1000C000E1F7A2D174C69CCFCF93DF93EC0154D457
:1000D0002091320130913301CE01820F931F8C3D6C
:1000E00045E0940758F42817390758F4E901CC5C27
:1000F000DE4F909333018093320105C0C0E0D0E021
:1001000002C0C0E0D0E0FFD4CE01DF91CF910895CE
:100110000895FC010396928381832FEF3FEF348390
:100120002383968385839087878310820895FC01BB
:10013000118610860895CF93DF93FC01DB012181A6
:100140003281E9018A819B8113969C938E93129749
:100150008181928115969C938E9314978A819B81BD
:10016000EC017D836C83E9017B836A837283618305
:100170001996FC93EE93189780818F5F8083DF91AF
:10018000CF910895CF93DF93EB01488159814F3F81
:100190002FEF520731F4DC011796ED91FC9118977F
:1001A00017C0FC013396DC0115962D913C911697F2
:1001B000D9012D913C914217530750F00280F381F1
:1001C000E02DA281B3812D913C9142175307B0F7E6
:1001D000A281B381BB83AA831596DC93CE93149737
:1001E000FD83EC83D383C28399878887FC012081B8
:1001F0002F5F2083DF91CF910895FC01A281B3810D
:100200008481958115969C938E931497A481B581D2
:100210008281938113969C938E931297A085B185CA
:1002200011968D919C9112978E179F0731F48481BE
:10023000958112969C938E931197118610868C91BE
:1002400081508C93089580916C07813041F018F0B3
:10025000823071F011C081E080936C0713C082E09E
:1002600080936C07809110078E7F8093100706C0E3
:1002700081E080936C0706C010926C078091100794
:100280008BB9089580911007816080931007F6CF95
:1002900010926C07D8DF82E390E0B6D4FBCFAF9228
:1002A000BF92CF92DF92EF92FF920F93A12CB12CCD
:1002B000C12CD12CE12CF12C082F20E030E045E5B9
:1002C00050E062E071E088E491E03AD20F91FF9053
:1002D000EF90DF90CF90BF90AF90089580916D0721
:1002E000813041F018F0823071F011C081E08093CC
:1002F0006D0713C082E080936D07809110078B7F9C
:100300008093100706C081E080936D0706C01092AD
:100310006D07809110078BB9089580911007846054
:1003200080931007F6CF10926D07D8DF84E690E037
:100330006BD4FBCFAF92BF92CF92DF92EF92FF923E
:100340000F93A12CB12CC12CD12CE12CF12C082F16
:1003500020E030E045E550E060E171E083E991E0C4
:10036000EFD10F91FF90EF90DF90CF90BF90AF90C3
:10037000089580916B07813041F018F0823071F060
:1003800011C081E080936B0713C082E080936B07FC
:10039000809110078F7E8093100706C081E08093C4
:1003A0006B0706C010926B07809110078BB90895F8
:1003B00080911007806180931007F6CF10926B0731
:1003C000D8DF8AEF90E020D4FBCFAF92BF92CF92DC
:1003D000DF92EF92FF920F93A12CB12CC12CD12C64
:1003E000E12CF12C082F20E030E045E550E06EE1F3
:1003F00071E08EED91E0A4D10F91FF90EF90DF902E
:10040000CF90BF90AF90089511B88FEF82B98AB99D
:1004100081E045DF81E08EDF81E0D7DF84D280E0BC
:1004200090E0089531E1FC013083319722E220838E
:100430003197A3E3A083319760833197708331971D
:100440001082319760E8608331971082319762E0C3
:100450006083319763E06083319764E06083319714
:1004600065E06083319766E06083319767E0608381
:10047000319768E06083319769E06083319760E18C
:10048000608331973083319732E13083319733E1A4
:100490003083319734E13083319735E130833197C0
:1004A00036E13083319737E13083319738E130835B
:1004B000319739E13083319730E23083319731E23F
:1004C000308331972083319723E220833197408313
:1004D00031975083319726E22083319727E220839A
:1004E000319728E22083319729E22083319720E356
:1004F0002083319721E32083869708951092890005
:100500008CE7809388008BE080938100EFE6F0E039
:10051000808182608083A0916907B0916A07CD9144
:10052000CDBFDD91DEBFFF91EF91DF91CF91BF9104
:10053000AF919F918F917F916F915F914F913F917B
:100540002F911F910F91FF90EF90DF90CF90BF9070
:10055000AF909F908F907F906F905F904F903F9063
:100560002F901F900F900FBE0F90089581E0089577
:100570000F920FB6F8940F921F9211242F923F9270
:100580004F925F926F927F928F929F92AF92BF92A3
:10059000CF92DF92EF92FF920F931F932F933F938F
:1005A0004F935F936F937F938F939F93AF93BF937B
:1005B000CF93DF93EF93FF93A0916907B0916A0700
:1005C0000DB60D920EB60D9270D3A0916907B09141
:1005D0006A07CD91CDBFDD91DEBFFF91EF91DF9135
:1005E000CF91BF91AF919F918F917F916F915F91CB
:1005F0004F913F912F911F910F91FF90EF90DF90BE
:10060000CF90BF90AF909F908F907F906F905F90B2
:100610004F903F902F901F900F900FBE0F90089516
:100620000F920FB6F8940F921F9211242F923F92BF
:100630004F925F926F927F928F929F92AF92BF92F2
:10064000CF92DF92EF92FF920F931F932F933F93DE
:100650004F935F936F937F938F939F93AF93BF93CA
:10066000CF93DF93EF93FF93A0916907B0916A074F
:100670000DB60D920EB60D9285D117D3A0916907D4
:10068000B0916A07CD91CDBFDD91DEBFFF91EF91B3
:10069000DF91CF91BF91AF919F918F917F916F919A
:1006A0005F914F913F912F911F910F91FF90EF908C
:1006B000DF90CF90BF90AF909F908F907F906F9082
:1006C0005F904F903F902F901F900F900FBE0F9014
:1006D0000895A6DF1895CF93DF93EC01E0916907A9
:1006E000F0916A07938382838091190790911A078A
:1006F000C817D90760F46091690770916A07809103
:100700002F07909130076E5F7F4F3CDD16C06091E0
:10071000690770916A0780913107909132076E5F87
:100720007F4F30DD8091000190910101C817D907FA
:1007300020F4D0930101C0930001DF91CF9108957F
:100740004F925F926F927F928F929F92AF92BF92E1
:10075000CF92DF92EF92FF920F931F93CF93DF938D
:100760005C014B013A01290181E290E0ADDCEC0132
:10077000892B09F4C6C0C114D10409F0BEC0C3015D
:10078000A3DC988F8F8B009719F4CE01C1DCB9C020
:10079000A30165EA70E0F5D29301215031098F89F8
:1007A000988D3C01620E731E48E050E0B401CE010A
:1007B0004996EED218A2102F043008F013E01E8BD9
:1007C0006E0182E0C80ED11CC601B1DCCE010C96D0
:1007D000AEDCD987C88784E090E0811B91099D87B2
:1007E0008C87DB8BCA8BA201B501C3011BDE998309
:1007F0008883E114F10419F0F701D183C0830FB6A7
:10080000F8940F9280911B078F5F80931B07809154
:10081000690790916A07892B69F5D0936A07C0939D
:10082000690780911B078130A1F585E497E071DCB1
:100830008EE497E06EDC87E597E06BDC80E697E07E
:1008400068DC8CE397E065DC83E397E062DC86E2BA
:1008500097E05FDC8DE197E05CDC8CE397E09093C0
:1008600032078093310783E397E0909330078093BA
:100870002F070FC08091160781110BC0E091690707
:10088000F0916A078689081720F0D0936A07C09311
:1008900069078E8990911807981710F480931807AC
:1008A000909111079F5F90931107909117079817E8
:1008B00010F48093170790E09C01220F331F220F42
:1008C000331F220F331F820F931FB6018B5B984F8C
:1008D00032DC0F900FBE80911607882351F0E09113
:1008E0006907F0916A078689801728F441DE81E064
:1008F00009C081E007C081E005C0D88ECF8AC6015B
:1009000047CF8FEFDF91CF911F910F91FF90EF9025
:10091000DF90CF90BF90AF909F908F907F906F901F
:100920005F904F900895AF92BF92CF92DF92EF9277
:10093000FF920F93A12CB12CC12CD12CE12CF12CC6
:1009400000E020E030E045E550E06CE271E08FE14E
:1009500096E0F6DE813041F4F89480931607109209
:100960001A0710921907CADD0F91FF90EF90DF90E0
:10097000CF90BF90AF900895809115078F5F8093BF
:10098000150708950F931F93CF93DF938091150759
:100990008111AFC08091190790911A070196909329
:1009A0001A07809319078091190790911A07892BCC
:1009B00099F5809131079091320720912F0730915E
:1009C000300730933207209331079093300780939C
:1009D0002F07809112078F5F80931207E0913107F4
:1009E000F09132078081811107C08FEF9FEF9093C4
:1009F00001018093000110C0E0913107F0913207AE
:100A00000580F681E02D0680F781E02D82819381BB
:100A100090930101809300012091190730911A07EA
:100A200080910001909101012817390708F466C0F0
:100A3000E0913107F09132078081882399F0E091AD
:100A40003107F09132070580F681E02DC681D7810C
:100A50008A819B812091190730911A07281739073D
:100A6000F8F419C08FEF9FEF90930101809300017C
:100A700045C0E0913107F09132070580F681E02D05
:100A8000C681D7818A819B812091190730911A07ED
:100A90002817390728F490930101809300012EC094
:100AA0008E010E5F1F4FC801A8DB8C899D89892BA1
:100AB00019F0CE010C96A1DB2E89809117078217C1
:100AC00010F42093170730E0C901880F991F880F91
:100AD000991F880F991F820F931FB8018B5B984F46
:100AE0002ADBE0913107F091320780818111C1CF7B
:100AF000B9CF809114078F5F80931407DF91CF9156
:100B00001F910F910895CF92DF92EF92FF920F9372
:100B10001F93CF93DF930FB6F8940F928091150730
:100B20008150809315078091150781115FC08091D6
:100B30001B0781112FC05DC0D7011596ED91FC9167
:100B40001697C681D781CE010C9657DB8E010E5FBA
:100B50001F4FC80152DB2E8980911707821710F4AE
:100B60002093170730E0C901880F991F880F991F3C
:100B7000880F991F820F931FB8018B5B984FDBDAA8
:100B8000E0916907F0916A079E898689981758F065
:100B9000DC2C09C0D12C0F2EF6E2EF2EF7E0FF2E51
:100BA000F02DCC24C394F70180818111C5CF8091B1
:100BB0001407882379F080911407882391F0E2DEEE
:100BC000809114078150809314078091140781113C
:100BD000F6CF07C0F1E0DF1621F0809113078130D6
:100BE00039F410921307C4DC81E003C080E001C037
:100BF00080E00F900FBEDF91CF911F910F91FF907A
:100C0000EF90DF90CF900895CF93DF93EC01892B85
:100C100091F0B2DE8091190790911A07C80FD91F81
:100C20008091690790916A070296E7DACE0153DD59
:100C30006ADF811101C09CDCDF91CF9108950F2EF6
:100C4000FDE1EF2EF7E0FF2EF02DC5E4D7E0809117
:100C50001C07882329F190DED7011C9154DF112352
:100C6000F9F00FB6F8940F92D7011596ED91FC911B
:100C7000169706811781C8010296BFDA80911B077B
:100C8000815080931B0780911C07815080931C0723
:100C90000F900FBEF8018789908D3ADAC80138DAD3
:100CA00088818230A0F264DCD2CF80911507811157
:100CB00013C08091170790E0FC01EE0FFF1FEE0FAD
:100CC000FF1FEE0FFF1F8E0F9F1FFC01EB5BF84F06
:100CD0008081882329F01BC081E080931307089549
:100CE000809117078150809317078091170790E034
:100CF000FC01EE0FFF1FEE0FFF1FEE0FFF1F8E0F09
:100D00009F1FFC01EB5BF84F8081882349F38091A2
:100D1000170790E09C01220F331F220F331F220F71
:100D2000331F280F391FD901AB5BB84F1196ED91D6
:100D3000FC9112970280F381E02D1296FC93EE93C2
:100D40001197285B384FE217F30729F4228133818A
:100D5000FD0132832183FC01EE0FFF1FEE0FFF1F09
:100D6000EE0FFF1F8E0F9F1FFC01EB5BF84F018002
:100D7000F281E02D8681978190936A0780936907BD
:100D80000895DC0101C06D9341505040E0F7089593
:100D9000FB01DC014150504048F001900D920020D1
:100DA000C9F701C01D9241505040E0F70895F894F2
:020DB000FFCF73
:100DB200FFFF4C65645365635461736B5F323000AF
:100DC2004C65645365635461736B5F3232004C65EA
:100DD200645365635461736B5F32340049444C451C
:020DE20000000F
:00000001FF
