:1000000045C0000061C000005FC000005DC000008E
:100010005BC0000059C0000057C0000055C0000080
:1000200053C0000051C000004FC000004DC0000090
:100030004BC000004BC4000047C0000045C000009A
:1000400043C0000041C000003FC000003DC00000B0
:100050003BC0000039C0000037C0000035C00000C0
:1000600033C0000031C000002FC000002DC00000D0
:100070002BC0000029C0000027C0000025C00000E0
:1000800023C0000021C000001FC0000011241FBEBB
:10009000CFEFD0E4DEBFCDBF11E0A0E0B1E0EAE0F9
:1000A000F3E100E00BBF02C007900D92AC32B10744
:1000B000D9F727E0ACE2B1E001C01D92A837B20742
:1000C000E1F702D20C9483099BCFCF93DF93EC012D
:1000D00050D520912C0130912D01CE01820F931F1C
:1000E0008C3D45E0940758F42817390758F4E90186
:1000F000C25DDE4F90932D0180932C0105C0C0E0BE
:10010000D0E002C0C0E0D0E0FBD5CE01DF91CF91BE
:10011000089508958FEE8BB90000489B29C0499B34
:1001200029C04A9B29C04B9B29C08FED8BB9000089
:10013000489B26C0499B26C04A9B26C04B9B26C095
:100140008FEB8BB90000489B23C0499B23C04A9B7F
:1001500023C04B9B23C08FE78BB90000489B20C076
:10016000499B20C04A9B20C04B9B20C080E0089543
:1001700081E3089584E3089587E308958AE208956A
:1001800082E3089585E3089588E3089580E3089560
:1001900083E3089586E3089589E3089583E208954B
:1001A00081E4089582E4089583E4089584E4089541
:1001B000BC01990F880B990B7CD720E030E044EB11
:1001C00050E4DCD620E030E040E852E4FED73ED7F1
:1001D000CB01089580917707813071F028F082304B
:1001E000A9F08330F1F021C010926C0710926B07D8
:1001F00081E08093770708958DDF809370078823CF
:1002000009F457C082E080937707089583DF8093D5
:10021000760790917007891759F083E080937707EC
:100220000CC081E0809377070895109277070895B6
:1002300080917707833009F061C080917007282F83
:1002400030E02950314041F410926C0710926B0756
:1002500081E080937707089590ED980F9A3090F49D
:1002600020916B0730916C07243031055CF4F90163
:10027000EF58F84F80832F5F3F4F30936C072093E8
:100280006B070895813451F1823479F480916B07C2
:1002900090916C07892B91F408C010926C07109212
:1002A0006B0781E080937707089581E0809377075B
:1002B0000895809177078330C1F3089581E797E02F
:1002C000E7D790930D0780930C0772DF90930B078D
:1002D00080930A0782E480930E07DFCF81E797E0DF
:1002E000D7D790930D0780930C0762DF90930B078D
:1002F00080930A0781E480930E07CFCF0895109270
:10030000770768DF82E090E07CD5FBCF03DF809346
:10031000700780916D07813051F028F08230A1F094
:10032000833059F144C081E080936D070895809136
:100330000E07813409F08CC082E080936D0742C0C3
:1003400083E080936D0787C02091690730916A0729
:1003500080910A0790910B07281739079CF110929A
:100360006F0710926E0710926A0710926907109239
:100370000E0781E080936D07089520916907309101
:100380006A0780910A0790910B07281739070CF428
:1003900062C010926F0710926E0710926A07109257
:1003A000690710920E0781E080936D0708951092FF
:1003B0006D0710926F0710926E0710926A071092E5
:1003C0006907089580916E0790916F07992334F41F
:1003D00086E090E090936F0780936E07E0916E0740
:1003E000F0916F07E050FF4F808182B980916E07D6
:1003F00090916F07019790936F0780936E0780919C
:10040000690790916A07019690936A07809369073C
:10041000089510926F0710926E07E0916E07F091A9
:100420006F07E050FF4F808182B980916E079091F5
:100430006F07019690936F0780936E07809169070D
:1004400090916A07019690936A07809369070895CF
:10045000823441F475CF80916E0790916F070797B2
:10046000C4F6DBCF089510926D0750DF81E090E075
:10047000C8D4FBCFAF92BF92CF92DF92EF92FF92A0
:100480000F93CF93A12CB12CC12CD12CE12CF12CAA
:10049000082F20E030E045E550E06BE071E08FE7A9
:1004A00091E04BD220E030E045E550E069E171E0B9
:1004B00083E392E042D2CF910F91FF90EF90DF90D3
:1004C000CF90BF90AF9008958FEF81B912B814B854
:1004D00085B987B918B880EF8AB98FE08BB981E008
:1004E000C9DF1ED380E090E00895FC01039692835B
:1004F00081832FEF3FEF3483238396838583908717
:10050000878310820895FC01118610860895CF9389
:10051000DF93FC01DB0121813281E9018A819B812A
:1005200013969C938E9312978181928115969C933A
:100530008E9314978A819B81EC017D836C83E90102
:100540007B836A83728361831996FC93EE93189779
:1005500080818F5F8083DF91CF910895CF93DF9368
:10056000EB01488159814F3F2FEF520731F4DC01F5
:100570001796ED91FC91189717C0FC013396DC019A
:1005800015962D913C911697D9012D913C914217CA
:10059000530750F00280F381E02DA281B3812D91A9
:1005A0003C9142175307B0F7A281B381BB83AA8362
:1005B0001596DC93CE931497FD83EC83D383C2838B
:1005C00099878887FC0120812F5F2083DF91CF915D
:1005D0000895FC01A281B3818481958115969C9335
:1005E0008E931497A481B5818281938113969C93F5
:1005F0008E931297A085B18511968D919C9112973B
:100600008E179F0731F48481958112969C938E9367
:100610001197118610868C9181508C93089531E149
:10062000FC013083319722E220833197A3E3A0833A
:10063000319760833197708331971082319760E8EA
:10064000608331971082319762E06083319763E075
:100650006083319764E06083319765E06083319710
:1006600066E06083319767E06083319768E060837C
:10067000319769E06083319760E16083319730831F
:10068000319732E13083319733E13083319734E170
:100690003083319735E13083319736E130833197BC
:1006A00037E13083319738E13083319739E1308356
:1006B000319730E23083319731E2308331972083B4
:1006C000319723E2208331974083319750833197CC
:1006D00026E22083319727E22083319728E2208386
:1006E000319729E22083319720E32083319721E35A
:1006F000208386970895109289008CE78093880064
:100700008BE080938100EFE6F0E08081826080835F
:10071000A0916707B0916807CD91CDBFDD91DEBF95
:10072000FF91EF91DF91CF91BF91AF919F918F9109
:100730007F916F915F914F913F912F911F910F91F9
:10074000FF90EF90DF90CF90BF90AF909F908F90F1
:100750007F906F905F904F903F902F901F900F90E1
:100760000FBE0F90089581E008950F920FB6F89490
:100770000F921F9211242F923F924F925F926F928D
:100780007F928F929F92AF92BF92CF92DF92EF9221
:10079000FF920F931F932F933F934F935F936F930A
:1007A0007F938F939F93AF93BF93CF93DF93EF93F9
:1007B000FF93A0916707B09168070DB60D920EB632
:1007C0000D9270D3A0916707B0916807CD91CDBF0E
:1007D000DD91DEBFFF91EF91DF91CF91BF91AF919E
:1007E0009F918F917F916F915F914F913F912F9149
:1007F0001F910F91FF90EF90DF90CF90BF90AF903F
:100800009F908F907F906F905F904F903F902F9030
:100810001F900F900FBE0F9008950F920FB6F8948F
:100820000F921F9211242F923F924F925F926F92DC
:100830007F928F929F92AF92BF92CF92DF92EF9270
:10084000FF920F931F932F933F934F935F936F9359
:100850007F938F939F93AF93BF93CF93DF93EF9348
:10086000FF93A0916707B09168070DB60D920EB681
:100870000D9285D117D3A0916707B0916807CD91EC
:10088000CDBFDD91DEBFFF91EF91DF91CF91BF91A1
:10089000AF919F918F917F916F915F914F913F9118
:1008A0002F911F910F91FF90EF90DF90CF90BF900D
:1008B000AF909F908F907F906F905F904F903F9000
:1008C0002F901F900F900FBE0F900895A6DF1895E0
:1008D000CF93DF93EC01E0916707F0916807938372
:1008E00082838091170790911807C817D90760F481
:1008F000609167077091680780912D0790912E078E
:100900006E5F7F4F2BDE16C060916707709168079E
:1009100080912F07909130076E5F7F4F1FDE80918F
:10092000070190910801C817D90720F4D093080156
:10093000C0930701DF91CF9108954F925F926F921C
:100940007F928F929F92AF92BF92CF92DF92EF925F
:10095000FF920F931F93CF93DF935C014B013A01FA
:10096000290181E290E0B1DBEC01892B09F4C6C0DA
:10097000C114D10409F0BEC0C301A7DB988F8F8BCF
:10098000009719F4CE01C5DBB9C0A30165EA70E098
:100990009CD49301215031098F89988D3C01620EBE
:1009A000731E48E050E0B401CE01499695D418A2D8
:1009B000102F043008F013E01E8B6E0182E0C80E89
:1009C000D11CC601A0DDCE010C969DDDD987C8875C
:1009D00084E090E0811B91099D878C87DB8BCA8B1B
:1009E000A201B501C3011BDE99838883E114F104E0
:1009F00019F0F701D183C0830FB6F8940F9280915C
:100A000019078F5F80931907809167079091680796
:100A1000892B69F5D0936807C09367078091190700
:100A20008130A1F583E497E060DD8CE497E05DDD43
:100A300085E597E05ADD8EE597E057DD8AE397E09C
:100A400054DD81E397E051DD84E297E04EDD8BE1F8
:100A500097E04BDD8AE397E09093300780932F0770
:100A600081E397E090932E0780932D070FC080912C
:100A7000140781110BC0E0916707F0916807868920
:100A8000081720F0D0936807C09367078E8990916C
:100A90001607981710F48093160790910F079F5F21
:100AA00090930F0790911507981710F480931507EE
:100AB00090E09C01220F331F220F331F220F331FA0
:100AC000820F931FB6018D5B984F21DD0F900FBEF3
:100AD00080911407882351F0E0916707F09168072F
:100AE0008689801728F441DE81E009C081E007C0D3
:100AF00081E005C0D88ECF8AC60147CF8FEFDF9146
:100B0000CF911F910F91FF90EF90DF90CF90BF900A
:100B1000AF909F908F907F906F905F904F900895CF
:100B2000AF92BF92CF92DF92EF92FF920F93A12CE0
:100B3000B12CC12CD12CE12CF12C00E020E030E0D4
:100B400045E550E066E271E08CE197E0F6DE813049
:100B500041F4F89480931407109218071092170725
:100B6000CADD0F91FF90EF90DF90CF90BF90AF90D4
:100B70000895809113078F5F8093130708950F9353
:100B80001F93CF93DF93809113078111AFC08091A2
:100B900017079091180701969093180780931707ED
:100BA0008091170790911807892B99F580912F074D
:100BB0009091300720912D0730912E073093300708
:100BC00020932F0790932E0780932D078091100775
:100BD0008F5F80931007E0912F07F091300780819D
:100BE000811107C08FEF9FEF909308018093070159
:100BF00010C0E0912F07F09130070580F681E02DBD
:100C00000680F781E02D8281938190930801809383
:100C100007012091170730911807809107019091E3
:100C200008012817390708F466C0E0912F07F091F2
:100C300030078081882399F0E0912F07F0913007E9
:100C40000580F681E02DC681D7818A819B81209124
:100C500017073091180728173907F8F419C08FEFD4
:100C60009FEF909308018093070145C0E0912F0703
:100C7000F09130070580F681E02DC681D7818A8109
:100C80009B8120911707309118072817390728F4FE
:100C900090930801809307012EC08E010E5F1F4FB5
:100CA000C80197DC8C899D89892B19F0CE010C969F
:100CB00090DC2E8980911507821710F42093150778
:100CC00030E0C901880F991F880F991F880F991F5D
:100CD000820F931FB8018D5B984F19DCE0912F07AD
:100CE000F091300780818111C1CFB9CF8091120777
:100CF0008F5F80931207DF91CF911F910F9108951D
:100D0000CF92DF92EF92FF920F931F93CF93DF93D7
:100D10000FB6F8940F9280911307815080931307B8
:100D20008091130781115FC08091190781112FC035
:100D30005DC0D7011596ED91FC911697C681D781BC
:100D4000CE010C9646DC8E010E5F1F4FC80141DCC0
:100D50002E8980911507821710F42093150730E033
:100D6000C901880F991F880F991F880F991F820F3B
:100D7000931FB8018D5B984FCADBE0916707F09134
:100D800068079E898689981758F0DC2C09C0D12CF9
:100D90000F2EF4E2EF2EF7E0FF2EF02DCC24C394BB
:100DA000F70180818111C5CF80911207882379F0E6
:100DB00080911207882391F0E2DE80911207815022
:100DC00080931207809112078111F6CF07C0F1E0DE
:100DD000DF1621F080911107813039F4109211074C
:100DE000C4DC81E003C080E001C080E00F900FBE52
:100DF000DF91CF911F910F91FF90EF90DF90CF90F7
:100E00000895CF93DF93EC01892B91F0B2DE8091AE
:100E1000170790911807C80FD91F80916707909105
:100E200068070296D6DBCE0153DD6ADF811101C06F
:100E30009CDCDF91CF9108950F2EFBE1EF2EF7E0C0
:100E4000FF2EF02DC3E4D7E080911A07882329F103
:100E500090DED7011C9154DF1123F9F00FB6F894FE
:100E60000F92D7011596ED91FC9116970681178187
:100E7000C8010296AEDB8091190781508093190753
:100E800080911A07815080931A070F900FBEF801C6
:100E90008789908D3ED9C8013CD988818230A0F2E3
:100EA00064DCD2CF80911307811113C080911507A4
:100EB00090E0FC01EE0FFF1FEE0FFF1FEE0FFF1F74
:100EC0008E0F9F1FFC01ED5BF84F8081882329F076
:100ED0001BC081E080931107089580911507815010
:100EE000809315078091150790E0FC01EE0FFF1F1E
:100EF000EE0FFF1FEE0FFF1F8E0F9F1FFC01ED5B1C
:100F0000F84F8081882349F38091150790E09C0178
:100F1000220F331F220F331F220F331F280F391FB9
:100F2000D901AD5BB84F1196ED91FC9112970280FB
:100F3000F381E02D1296FC93EE9311972A5B384FC4
:100F4000E217F30729F422813381FD0132832183E3
:100F5000FC01EE0FFF1FEE0FFF1FEE0FFF1F8E0FA6
:100F60009F1FFC01ED5BF84F0180F281E02D86812F
:100F70009781909368078093670708950CD0EBC022
:100F8000E3D040F0DAD030F021F45F3F19F0CCC06C
:100F9000511115C1CFC0F0D098F39923C9F355234F
:100FA000B1F3951B550BBB27AA276217730784075C
:100FB00038F09F5F5F4F220F331F441FAA1FA9F312
:100FC00033D00E2E3AF0E0E830D091505040E69504
:100FD000001CCAF729D0FE2F27D0660F771F881F65
:100FE000BB1F261737074807AB07B0E809F0BB0B54
:100FF000802DBF01FF2793585F4F2AF09E3F510578
:1010000068F092C0DCC05F3FECF3983EDCF386955D
:1010100077956795B795F7959F5FC9F7880F911DED
:101020009695879597F90895E1E0660F771F881FD9
:10103000BB1F621773078407BA0720F0621B730B8C
:10104000840BBA0BEE1F88F7E095089504D06894DE
:10105000B111B5C0089598D088F09F5790F0B92F7E
:101060009927B751A0F0D1F0660F771F881F991FFD
:101070001AF0BA95C9F712C0B13081F09FD0B1E033
:1010800008959CC0672F782F8827B85F39F0B93F43
:10109000CCF3869577956795B395D9F73EF49095FF
:1010A0008095709561957F4F8F4F9F4F0895E8947D
:1010B00009C097FB3EF490958095709561957F4FA0
:1010C0008F4F9F4F9923A9F0F92F96E9BB2793954E
:1010D000F695879577956795B795F111F8CFFAF45E
:1010E000BB0F11F460FF1BC06F5F7F4F8F4F9F4F8F
:1010F00016C0882311F096E911C0772321F09EE8ED
:10110000872F762F05C0662371F096E8862F70E052
:1011100060E02AF09A95660F771F881FDAF7880F2C
:101120009695879597F9089597F99F6780E870E0FD
:1011300060E008959FEF80EC089500240A9416164D
:10114000170618060906089500240A9412161306B5
:10115000140605060895092E0394000C11F4882343
:1011600052F0BB0F40F4BF2B11F460FF04C06F5F5F
:101170007F4F8F4F9F4F089557FD9058440F551F35
:1011800059F05F3F71F04795880F97FB991F61F009
:101190009F3F79F087950895121613061406551F80
:1011A000F2CF4695F1DF08C0161617061806991FEC
:1011B000F1CF86957105610508940895E894BB27E1
:1011C00066277727CB0197F908950BD0C4CFB5DFF9
:1011D00028F0BADF18F0952309F0A6CFABCF112481
:1011E000EECFCADFA0F3959FD1F3950F50E0551FC6
:1011F000629FF001729FBB27F00DB11D639FAA276C
:10120000F00DB11DAA1F649F6627B00DA11D661FBA
:10121000829F2227B00DA11D621F739FB00DA11DDB
:10122000621F839FA00D611D221F749F3327A00D95
:10123000611D231F849F600D211D822F762F6A2F31
:1012400011249F5750408AF0E1F088234AF0EE0FB6
:10125000FF1FBB1F661F771F881F91505040A9F7C3
:101260009E3F510570F060CFAACF5F3FECF3983EF0
:10127000DCF3869577956795B795F795E7959F5F2A
:10128000C1F7FE2B880F911D9695879597F90895C4
:10129000FC0188279927E89421912032E9F329302D
:1012A00010F02E30C8F32B3239F02D3231F468941F
:1012B00003C021D0820F911D219120532A30C8F301
:1012C0001EF4909581959F4F0895DC0101C06D93A8
:1012D00041505040E0F70895FB01DC01415050407F
:1012E00048F001900D920020C9F701C01D924150B5
:1012F0005040E0F708957AE0979F902D879F802DCA
:0A130000910D11240895F894FFCF19
:10130A0001030206040C08FFFF2A004B657970618D
:10131A00645365635461736B004D6F746F725365E8
:0C132A00635461736B0049444C450000A3
:00000001FF
