S01700004763634170706C69636174696F6E322E737265635A
S113000045C0000060C000005EC000005CC000008D
S11300105AC0000058C0000056C0000054C0000080
S113002052C0000050C000004EC000004CC0000090
S11300304AC0000073C3000046C0000044C0000072
S113004042C0000040C000003EC000003CC00000B0
S11300503AC0000038C0000036C0000034C00000C0
S113006032C0000030C000002EC000002CC00000D0
S11300702AC0000028C0000026C0000024C00000E0
S113008022C0000020C000001EC0000011241FBEBA
S1130090CFEFD0E4DEBFCDBF11E0A0E0B1E0ECEFE4
S11300A0FDE000E00BBF02C007900D92AC31B10738
S11300B0D9F727E0ACE1B1E001C01D92AB35B2073E
S11300C0E1F7CAD199C69CCFCF93DF93EC0179D4E1
S11300D020911C0130911D01CE01820F931F8C3D94
S11300E045E0940758F42817390758F4E901C25E2B
S11300F0DE4F90931D0180931C0105C0C0E0D0E049
S113010002C0C0E0D0E024D5CE01DF91CF910895A4
S11301100895FC010396928381832FEF3FEF34838C
S11301202383968385839087878310820895FC01B7
S1130130118610860895CF93DF93FC01DB012181A2
S11301403281E9018A819B8113969C938E93129745
S11301508181928115969C938E9314978A819B81B9
S1130160EC017D836C83E9017B836A837283618301
S11301701996FC93EE93189780818F5F8083DF91AB
S1130180CF910895CF93DF93EB01488159814F3F7D
S11301902FEF520731F4DC011796ED91FC9118977B
S11301A017C0FC013396DC0115962D913C911697EE
S11301B0D9012D913C914217530750F00280F381ED
S11301C0E02DA281B3812D913C9142175307B0F7E2
S11301D0A281B381BB83AA831596DC93CE93149733
S11301E0FD83EC83D383C28399878887FC012081B4
S11301F02F5F2083DF91CF910895FC01A281B38109
S11302008481958115969C938E931497A481B581CE
S11302108281938113969C938E931297A085B185C6
S113022011968D919C9112978E179F0731F48481BA
S1130230958112969C938E931197118610868C91BA
S113024081508C93089580915607813061F038F085
S1130250823009F450C0833009F465C07CC081E069
S113026080935607089518990AC080E094E090930B
S11302705A078093590782E080935607B7C01999AB
S11302800AC080E098E090935A078093590782E06F
S113029080935607ABC01A990AC080E090E190930E
S11302A05A078093590782E0809356079FC01B9991
S11302B00AC080E094E090935A078093590783E042
S11302C0809356079BC01C990AC080E098E09093E5
S11302D05A078093590783E0809356078FC01D996E
S11302E094C080E090E190935A078093590783E08B
S11302F08093560783C0209154073091550780910D
S1130300590790915A07281739070CF46FC01092B7
S1130310580710925707109255071092540781E01E
S11303208093560708952091540730915507809182
S1130330590790915A07281739070CF45FC0109297
S1130340580710925707109255071092540781E0EE
S113035080935607089510925607109258071092EA
S113036057071092550710925407089586E090E0BD
S11303709093580780935707E0915707F0915807D7
S1130380E050FF4F808182B98091570790915807C0
S11303900197909358078093570780915407909141
S11303A0550701969093550780935407089510922A
S11303B0580710925707E0915707F0915807E050FB
S11303C0FF4F808182B98091570790915807019619
S11303D0909358078093570780915407909155073D
S11303E00196909355078093540708958091570779
S11303F09091580799230CF0BFCFB8CF809157073D
S11304009091580707979CF6D6CF089510925607F7
S11304101ADF83E090E01DD4FBCFAF92BF92CF925E
S1130420DF92EF92FF920F93A12CB12CC12CD12C0F
S1130430E12CF12C082F20E030E045E550E069E0A4
S113044071E086E092E0A1D10F91FF90EF90DF90F0
S1130450CF90BF90AF90089514B88FEF85B981B94C
S113046012B881E0DADF84D280E090E0089531E1CF
S1130470FC013083319722E220833197A3E3A083E8
S1130480319760833197708331971082319760E898
S1130490608331971082319762E06083319763E023
S11304A06083319764E06083319765E060833197BE
S11304B066E06083319767E06083319768E060832A
S11304C0319769E06083319760E1608331973083CD
S11304D0319732E13083319733E13083319734E11E
S11304E03083319735E13083319736E1308331976A
S11304F037E13083319738E13083319739E1308304
S1130500319730E23083319731E230833197208361
S1130510319723E220833197408331975083319779
S113052026E22083319727E22083319728E2208333
S1130530319729E22083319720E32083319721E307
S1130540208386970895109289008CE78093880011
S11305508BE080938100EFE6F0E08081826080830D
S1130560A0915207B0915307CD91CDBFDD91DEBF6D
S1130570FF91EF91DF91CF91BF91AF919F918F91B7
S11305807F916F915F914F913F912F911F910F91A7
S1130590FF90EF90DF90CF90BF90AF909F908F909F
S11305A07F906F905F904F903F902F901F900F908F
S11305B00FBE0F90089581E008950F920FB6F8943E
S11305C00F921F9211242F923F924F925F926F923B
S11305D07F928F929F92AF92BF92CF92DF92EF92CF
S11305E0FF920F931F932F933F934F935F936F93B8
S11305F07F938F939F93AF93BF93CF93DF93EF93A7
S1130600FF93A0915207B09153070DB60D920EB609
S11306100D9270D3A0915207B0915307CD91CDBFE5
S1130620DD91DEBFFF91EF91DF91CF91BF91AF914B
S11306309F918F917F916F915F914F913F912F91F6
S11306401F910F91FF90EF90DF90CF90BF90AF90EC
S11306509F908F907F906F905F904F903F902F90DE
S11306601F900F900FBE0F9008950F920FB6F8943D
S11306700F921F9211242F923F924F925F926F928A
S11306807F928F929F92AF92BF92CF92DF92EF921E
S1130690FF920F931F932F933F934F935F936F9307
S11306A07F938F939F93AF93BF93CF93DF93EF93F6
S11306B0FF93A0915207B09153070DB60D920EB659
S11306C00D9285D117D3A0915207B0915307CD91C4
S11306D0CDBFDD91DEBFFF91EF91DF91CF91BF914F
S11306E0AF919F918F917F916F915F914F913F91C6
S11306F02F911F910F91FF90EF90DF90CF90BF90BB
S1130700AF909F908F907F906F905F904F903F90AD
S11307102F901F900F900FBE0F900895A6DF18958D
S1130720CF93DF93EC01E0915207F0915307938349
S113073082838091020790910307C817D90760F458
S1130740609152077091530780911807909119078F
S11307506E5F7F4F17DD16C060915207709153078B
S113076080911A0790911B076E5F7F4F0BDD80917C
S1130770070190910801C817D90720F4D093080104
S1130780C0930701DF91CF9108954F925F926F92CA
S11307907F928F929F92AF92BF92CF92DF92EF920D
S11307A0FF920F931F93CF93DF935C014B013A01A8
S11307B0290181E290E088DCEC01892B09F4C6C0B0
S11307C0C114D10409F0BEC0C3017EDC988F8F8BA5
S11307D0009719F4CE019CDCB9C0A30165EA70E06E
S11307E0F5D29301215031098F89988D3C01620E15
S11307F0731E48E050E0B401CE014996EED218A22F
S1130800102F043008F013E01E8B6E0182E0C80E36
S1130810D11CC6018CDCCE010C9689DCD987C88733
S113082084E090E0811B91099D878C87DB8BCA8BC8
S1130830A201B501C3011BDE99838883E114F1048D
S113084019F0F701D183C0830FB6F8940F92809109
S113085004078F5F80930407809152079091530798
S1130860892B69F5D0935307C093520780910407ED
S11308708130A1F58EE297E04CDC87E397E049DC18
S113088080E497E046DC89E497E043DC85E297E086
S113089040DC8CE197E03DDC8FE097E03ADC86E0D9
S11308A097E037DC85E297E090931B0780931A0763
S11308B08CE197E090931907809318070FC08091FB
S11308C0FF0681110BC0E0915207F091530786890E
S11308D0081720F0D0935307C09352078E89909144
S11308E00107981710F4809301079091FA069F5F0F
S11308F09093FA0690910007981710F480930007DC
S113090090E09C01220F331F220F331F220F331F4D
S1130910820F931FB601825D984F0DDC0F900FBEBE
S11309208091FF06882351F0E0915207F09153071C
S11309308689801728F441DE81E009C081E007C080
S113094081E005C0D88ECF8AC60147CF8FEFDF91F3
S1130950CF911F910F91FF90EF90DF90CF90BF90B8
S1130960AF909F908F907F906F905F904F9008957D
S1130970AF92BF92CF92DF92EF92FF920F93A12C8E
S1130980B12CC12CD12CE12CF12C00E020E030E082
S113099045E550E066E171E084E496E0F6DE8130FE
S11309A041F4F8948093FF06109203071092020713
S11309B0CADD0F91FF90EF90DF90CF90BF90AF9082
S11309C008958091FE068F5F8093FE0608950F932D
S11309D01F93CF93DF938091FE068111AFC0809166
S11309E002079091030701969093030780930207EF
S11309F08091020790910307892B99F580911A073A
S1130A0090911B07209118073091190730931B0709
S1130A1020931A0790931907809318078091FB0677
S1130A208F5F8093FB06E0911A07F0911B0780818A
S1130A30811107C08FEF9FEF909308018093070106
S1130A4010C0E0911A07F0911B070580F681E02D94
S1130A500680F781E02D8281938190930801809331
S1130A6007012091020730910307809107019091BB
S1130A7008012817390708F466C0E0911A07F091B5
S1130A801B078081882399F0E0911A07F0911B07D6
S1130A900580F681E02DC681D7818A819B812091D2
S1130AA002073091030728173907F8F419C08FEFAC
S1130AB09FEF909308018093070145C0E0911A07C6
S1130AC0F0911B070580F681E02DC681D7818A81CC
S1130AD09B8120910207309103072817390728F4D6
S1130AE090930801809307012EC08E010E5F1F4F63
S1130AF0C80183DB8C899D89892B19F0CE010C9662
S1130B007CDB2E8980910007821710F42093000764
S1130B1030E0C901880F991F880F991F880F991F0A
S1130B20820F931FB801825D984F05DBE0911A078D
S1130B30F0911B0780818111C1CFB9CF8091FD064F
S1130B408F5F8093FD06DF91CF911F910F910895E0
S1130B50CF92DF92EF92FF920F931F93CF93DF9385
S1130B600FB6F8940F928091FE0681508093FE0692
S1130B708091FE0681115FC08091040781112FC00E
S1130B805DC0D7011596ED91FC911697C681D7816A
S1130B90CE010C9632DB8E010E5F1F4FC8012DDB98
S1130BA02E8980910007821710F42093000730E00B
S1130BB0C901880F991F880F991F880F991F820FE9
S1130BC0931FB801825D984FB6DAE0915207F09115
S1130BD053079E898689981758F0DC2C09C0D12CBC
S1130BE00F2EFFE0EF2EF7E0FF2EF02DCC24C39460
S1130BF0F70180818111C5CF8091FD06882379F0AA
S1130C008091FD06882391F0E2DE8091FD068150FB
S1130C108093FD068091FD068111F6CF07C0F1E0B7
S1130C20DF1621F08091FC06813039F41092FC0625
S1130C30C4DC81E003C080E001C080E00F900FBEFF
S1130C40DF91CF911F910F91FF90EF90DF90CF90A4
S1130C500895CF93DF93EC01892B91F0B2DE80915C
S1130C60020790910307C80FD91F809152079091F2
S1130C7053070296C2DACE0153DD6ADF811101C047
S1130C809CDCDF91CF9108950F2EF6E0EF2EF7E074
S1130C90FF2EF02DCEE2D7E080910507882329F1BD
S1130CA090DED7011C9154DF1123F9F00FB6F894AC
S1130CB00F92D7011596ED91FC9116970681178135
S1130CC0C80102969ADA8091040781508093040740
S1130CD0809105078150809305070F900FBEF8019E
S1130CE08789908D15DAC80113DA88818230A0F2E1
S1130CF064DCD2CF8091FE06811113C0809100077D
S1130D0090E0FC01EE0FFF1FEE0FFF1FEE0FFF1F21
S1130D108E0F9F1FFC01E25DF84F8081882329F02C
S1130D201BC081E08093FC060895809100078150E8
S1130D30809300078091000790E0FC01EE0FFF1FF5
S1130D40EE0FFF1FEE0FFF1F8E0F9F1FFC01E25DD2
S1130D50F84F8081882349F38091000790E09C013B
S1130D60220F331F220F331F220F331F280F391F67
S1130D70D901A25DB84F1196ED91FC9112970280B2
S1130D80F381E02D1296FC93EE9311972F5C384F6C
S1130D90E217F30729F422813381FD013283218391
S1130DA0FC01EE0FFF1FEE0FFF1FEE0FFF1F8E0F54
S1130DB09F1FFC01E25DF84F0180F281E02D8681E6
S1130DC0978190935307809352070895DC0101C0E3
S1130DD06D9341505040E0F70895FB01DC01415010
S1130DE0504048F001900D920020C9F701C01D92B7
S10F0DF041505040E0F70895F894FFCF04
S1130DFC01030206040C08FFFF4D6F746F725365F8
S10F0E0C635461736B0049444C450000C2
S9030000FC
