:1000000057C0000072C0000070C000006EC0000049
:100010006CC000006AC0000068C0000066C000003C
:1000200064C0000062C0000060C000005EC000004C
:100030005CC000007DC1000058C0000056C0000038
:1000400054C0000052C0000050C000004EC000006C
:100050004CC000004AC0000048C0000046C000007C
:1000600044C0000042C0000040C000003EC000008C
:100070003CC000003AC0000038C0000036C000009C
:1000800034C0000032C0000030C0000082009A007E
:100090009D00A300A600AC00AF00B500B8000101B0
:1000A00019011C01220125012B012E013401370108
:1000B00011241FBECFEFD0E4DEBFCDBF11E0A0E022
:1000C000B1E0EEE0F5E000E00BBF02C007900D925A
:1000D000A031B107D9F721E0A0E1B1E001C01D9244
:1000E000AB32B207E1F7BAD110C28ACFE091030177
:1000F0008E2F90E08930910508F040C0FC01EA5B4A
:10010000FF4FFAC1009903C082E080930301019977
:1001100003C084E080930301029906C086E08093C7
:100120000301039B03C059C003992BC088E080934F
:10013000030153C01092030150C0009B4EC081E0E8
:10014000809303012BC01092030147C0019B45C05F
:1001500083E0809303012AC0109203013EC0029BFA
:100160003CC085E08093030129C01092030135C093
:10017000039B33C087E08093030128C010920301E2
:100180002CC080910301833089F018F4813031F064
:1001900024C0853099F08730C9F01FC080910501D7
:1001A0008A30D8F086958093050117C080910501AB
:1001B000803998F4880F809305010FC08091040165
:1001C0008C3158F4880F8093040107C0809104019A
:1001D000883018F08695809304018091050188B9D4
:1001E0008091040180958BB90895E09100018E2FD4
:1001F00090E08930910508F040C0FC01E15BFF4FC1
:100200007BC1009903C082E080930001019903C083
:1002100084E080930001029906C086E0809300018B
:10022000039B03C059C003992BC088E08093000151
:1002300053C01092000150C0009B4EC081E08093DB
:1002400000012BC01092000147C0019B45C083E014
:10025000809300012AC0109200013EC0029B3CC066
:1002600085E08093000129C01092000135C0039BF6
:1002700033C087E08093000128C0109200012CC099
:1002800080910001833089F018F4813031F024C06E
:10029000853099F08730C9F01FC080910201873006
:1002A000D8F086958093020117C0809102018036B4
:1002B00098F4880F809302010FC08091010184316E
:1002C00058F4880F8093010107C0809101018630A6
:1002D00018F08695809301018091020188B9809180
:1002E000010180958BB908958BE0809381008DE7A3
:1002F00090E0909389008093880082E080936F0063
:10030000109285001092840080910B0190910C0155
:10031000A0910D01B0910E018093100190931101F5
:10032000A0931201B09313018FB780688FBF089517
:100330001F920F920FB60F9211248F939F93AF933A
:10034000BF938091100190911101A0911201B09181
:1003500013010197A109B109809310019093110134
:10036000A0931201B0931301892B8A2B8B2B99F444
:1003700081E08093140180910B0190910C01A09178
:100380000D01B0910E018093100190931101A09383
:100390001201B0931301BF91AF919F918F910F9074
:1003A0000FBE0F901F901895EF92FF921F93CF935F
:1003B000DF9380910A01882309F44AC010E0C12F1D
:1003C000D0E0FE01EE0FFF1FEA5FFE4FE080F180FC
:1003D000D70115964D915D916D917C91189711966D
:1003E0008D919D910D90BC91A02D481759076A07DA
:1003F0007B07B9F4F70180810184F285E02D082E96
:10040000000C990B0995D7018C93FE01EE0FFF1F8D
:10041000EA5FFE4F0190F081E02D1582168217826F
:100420001086CC0FDD1FCA5FDE4FE881F981858120
:100430009681A781B0850196A11DB11D8583968304
:10044000A783B0871F5F80910A01181708F4B7CF00
:10045000DF91CF911F91FF90EF90089511B8CFEFEA
:10046000C2B9C7B918B8CAB91BB8C12CD12C76010A
:10047000C394C0920B01D0920C01E0920D01F09256
:100480000E01C0921001D0921101E0921201F0927F
:1004900013012ADFE5E1F1E081819281A381B4813A
:1004A00085839683A783B087C182D282E382F48258
:1004B000C08386E790E092878187E0E2F1E0818166
:1004C0009281A381B48185839683A783B08782E0DC
:1004D00090E0A0E0B0E081839283A383B483C083E3
:1004E00085EF90E0928781875FDF809114018823F8
:1004F000E1F310921401F8CFEE0FFF1F0024001C4F
:0E0500000BBE0790F691E02D0994F894FFCF02
:10050E00FF0A18FF0E241501200102010000000051
:00000001FF
