:1000000045C0000060C000005EC000005CC0000091
:100010005AC0000058C0000056C0000054C0000084
:1000200052C0000050C000004EC000004CC0000094
:100030004AC00000B2C0000046C0000044C000003A
:1000400042C0000040C000003EC000003CC00000B4
:100050003AC0000038C0000036C0000034C00000C4
:1000600032C0000030C000002EC000002CC00000D4
:100070002AC0000028C0000026C0000024C00000E4
:1000800022C0000020C000001EC0000011241FBEBE
:10009000CFEFD0E4DEBFCDBF11E0A0E0B1E0EAEBEE
:1000A000FEE000E00BBF02C007900D92AA32B1073C
:1000B000D9F721E0AAE2B1E001C01D92A836B2074B
:1000C000E1F727D4F8C69CCFCF92DF92EF92FF9250
:1000D0001F93CF93DF9310922B01809144018823CB
:1000E00009F453C080E01BE0C0914D01D0914E0156
:1000F000189FC00DD11D11244D815E816F817885BF
:1001000089819A81AB81BC81481759076A077B07AF
:10011000B0F08881E985FA85082E000C990B0995C5
:10012000888380912B01E0914D01F0914E01189F41
:10013000E00DF11D11241582168217821086809120
:100140002B01E0914D01F0914E01189FE00DF11D42
:100150001124C580D680E780F0844091260150911B
:10016000270160912801709129014C0D5D1D6E1DC4
:100170007F1D45835683678370878F5F80932B0134
:1001800090914401891708F4AFCFDF91CF911F916F
:10019000FF90EF90DF90CF9008951F920F920FB6CF
:1001A0000F9211240BB60F922F933F934F935F93AF
:1001B0006F937F938F939F93AF93BF93EF93FF932F
:1001C0008091450190914601A0914701B09148016D
:1001D0000197A109B1098093450190934601A0932D
:1001E0004701B0934801892B8A2B8B2B89F46CDF54
:1001F0008091260190912701A0912801B0912901B9
:100200008093450190934601A0934701B093480124
:10021000FF91EF91BF91AF919F918F917F916F91DE
:100220005F914F913F912F910F900BBE0F900FBE9A
:100230000F901F9018958BE0809381008AE090E0EA
:10024000909389008093880082E080936F001092E1
:100250008500109284008091260190912701A09141
:100260002801B09129018093450190934601A09304
:100270004701B09348018FB780688FBF08958130E0
:1002800081F0E1ECF0E0808188618083E2ECF0E0D5
:1002900080818660808383E38093C4001092C500D0
:1002A0000895E9ECF0E0808188618083EAECF0E079
:1002B00080818660808383E38093CC001092CD00A0
:1002C0000895813029F48091C800882384F008952E
:1002D0008091C0008823ACF4A6ECB0E0E0ECF0E044
:1002E0008C9180932A0180818823D4F30895AEEC09
:1002F000B0E0E8ECF0E08C9180932A0180818823C3
:10030000D4F30895613041F0E0ECF0E0908195FF86
:10031000FDCF8093C6000895E8ECF0E0908195FF52
:10032000FDCF8093CE000895813041F0E0ECF0E005
:1003300080818823ECF78091C6000895E8ECF0E016
:1003400080818823ECF78091CE00089580915D0133
:10035000823031F128F4882351F0813061F049C0B6
:10036000843041F118F1853009F43FC042C081E08A
:1003700080935D0108958091C00088230CF048C0EF
:1003800082E080935D0180E0CFDF8093520180E0C6
:1003900098DF1092510110925E011092620108954F
:1003A00083E080935D0110925201089584E0809370
:1003B0005D01089580915101882351F180915E0182
:1003C000882331F180916201882311F185E08093C7
:1003D0005D0180916001909161012091490130910E
:1003E0004A018217930789F407C081E080935D0179
:1003F000089510925D01089520915B0130915C0198
:100400008217930711F461E07DDF81E080935D0145
:100410000895BC01990F880B990B85D320E030E03B
:1004200044EB50E4E5D220E030E040E852E407D469
:1004300047D3CB0108958D339105E0F09C012D53F6
:1004400031092C333105C8F02C5331092C333105D7
:10045000B8F02C5331092C333105A8F02C53310955
:100460002C33310598F08D529140CB9790F082E378
:1004700090E0089582E390E0089584E690E0089586
:100480008CE390E008958EE190E008958AE590E095
:10049000089584E190E0089580915801813009F435
:1004A0005FC020F0823009F466C07FC01092650101
:1004B000109257011092560110925A011092590150
:1004C0008091360190913701833091054CF097D49B
:1004D00068E671E017D490933D0180933C0110C011
:1004E000FC01EE0FFF1FE05EFE4F20813181309353
:1004F0003D0120933C010196909337018093360192
:10050000E0913C01F0913D01409142015091430145
:100510004E0F5F1F9A01A3E8BDE207D40024880FA5
:10052000991F001C880F991F001C892F902D68E6C9
:1005300071E0869F9001879F300D969F300D1124AA
:10054000421B530B5093430140934201CF0161DFA3
:10055000909331018093300181E08093580158C01D
:1005600080915201882309F447C08093650182E09D
:100570008093580146C020915601309157018091D7
:1005800030019091310128173907DCF181E0809327
:10059000510180914201909143014DDF909361019F
:1005A000809360011092580133C01092580130C0FE
:1005B00010925A011092590182B1807F82B992B192
:1005C000E0915901F0915A01E45FFE4F8081892B3F
:1005D00082B98091590190915A01019690935A01E4
:1005E0008093590180915601909157010196909303
:1005F0005701809356010CC080916501882341F01A
:10060000B6CF8091590190915A0107978CF6D4CFBB
:1006100080E090E0089580916601813009F45FC028
:1006200020F0823009F466C07FC010925F01109202
:10063000500110924F0110924C0110924B01809189
:10064000340190913501833091054CF0D8D368E6A0
:1006500071E058D390933B0180933A0110C0FC01A4
:10066000EE0FFF1FE65EFE4F2081318130933B018C
:1006700020933A0101969093350180933401E091E3
:100680003A01F0913B0140914001509141014E0FE0
:100690005F1F9A01A3E8BDE248D30024880F991F89
:1006A000001C880F991F001C892F902D68E671E0AF
:1006B000869F9001879F300D969F300D1124421B1D
:1006C000530B5093410140934001CF01A2DE909320
:1006D0002F0180932E0181E08093660158C08091A4
:1006E0005201882309F447C080935F0182E0809320
:1006F000660146C020914F013091500180912E013A
:1007000090912F0128173907DCF181E080935E0179
:1007100080914001909141018EDE90934A01809337
:1007200049011092660133C01092660130C01092E8
:100730004C0110924B0182B18F7082B992B1E0915D
:100740004B01F0914C01EC5FFE4F8081892B82B907
:1007500080914B0190914C01019690934C018093B4
:100760004B0180914F01909150010196909350015F
:1007700080934F010CC080915F01882341F0B6CF78
:1007800080914B0190914C0107978CF6D4CF80E07B
:1007900090E0089580915501813009F45FC020F008
:1007A000823009F466C07FC0109267011092640124
:1007B0001092630110925401109253018091320102
:1007C00090913301833091054CF019D368E671E0C4
:1007D00099D2909339018093380110C0FC01EE0F3B
:1007E000FF1FEC5EFE4F2081318130933901209351
:1007F000380101969093330180933201E0913801E2
:10080000F091390140913E0150913F014E0F5F1F21
:100810009A01A3E8BDE289D20024880F991F001C29
:10082000880F991F001C892F902D68E671E0869F24
:100830009001879F300D969F300D1124421B530B62
:1008400050933F0140933E01CF01E3DD90932D0192
:1008500080932C0181E08093550158C08091520112
:10086000882309F447C08093670182E08093550193
:1008700046C0209163013091640180912C019091D8
:100880002D0128173907DCF181E080936201809106
:100890003E0190913F01CFDD90935C0180935B011D
:1008A0001092550133C01092550130C0109254017E
:1008B000109253018BB18F708BB99BB1E0915301B2
:1008C000F0915401EC5FFE4F8081892B8BB98091B0
:1008D00053019091540101969093540180935301D8
:1008E00080916301909164010196909364018093DB
:1008F00063010CC080916701882341F0B6CF8091DD
:1009000053019091540107978CF6D4CF80E090E08A
:100910000895CF93DF93CDB7DEB7AC970FB6F894B9
:10092000DEBF0FBECDBF1FEF11B912B814B815B995
:100930001AB91BB880E0A3DC81E0A1DC87E090E07D
:1009400061D284E080934401CE01019690934E01E0
:1009500080934D01198382E090E0A0E0B0E08A83AB
:100960009B83AC83BD838E839F83A887B98726EA48
:1009700031E03B872A871C878D879E87AF87B88B9E
:10098000898B9A8BAB8BBC8B2CE432E03E8B2D8B0E
:100990001F8B888F998FAA8FBB8F8C8F9D8FAE8F67
:1009A000BF8F2BE033E039A328A31AA38BA39CA30A
:1009B000ADA3BEA38FA398A7A9A7BAA78AEC93E07B
:1009C0009CA78BA781E090E0A0E0B0E08093260197
:1009D00090932701A0932801B093290180934501AA
:1009E00090934601A0934701B093480124DCFFCFC8
:1009F0000CD0EBC0E3D040F0DAD030F021F45F3F10
:100A000019F0CCC0511115C1CFC0F0D098F3992383
:100A1000C9F35523B1F3951B550BBB27AA276217C2
:100A20007307840738F09F5F5F4F220F331F441F07
:100A3000AA1FA9F333D00E2E3AF0E0E830D091503F
:100A40005040E695001CCAF729D0FE2F27D0660F2C
:100A5000771F881FBB1F261737074807AB07B0E86B
:100A600009F0BB0B802DBF01FF2793585F4F2AF081
:100A70009E3F510568F092C0DCC05F3FECF3983EAA
:100A8000DCF3869577956795B795F7959F5FC9F7DE
:100A9000880F911D9695879597F90895E1E0660F67
:100AA000771F881FBB1F621773078407BA0720F0E0
:100AB000621B730B840BBA0BEE1F88F7E095089549
:100AC00004D06894B111B5C0089598D088F09F57AC
:100AD00090F0B92F9927B751A0F0D1F0660F771F8A
:100AE000881F991F1AF0BA95C9F712C0B13081F06A
:100AF0009FD0B1E008959CC0672F782F8827B85FFA
:100B000039F0B93FCCF3869577956795B395D9F7CA
:100B10003EF490958095709561957F4F8F4F9F4FD4
:100B20000895E89409C097FB3EF4909580957095E0
:100B300061957F4F8F4F9F4F9923A9F0F92F96E929
:100B4000BB279395F695879577956795B795F1119E
:100B5000F8CFFAF4BB0F11F460FF1BC06F5F7F4F3B
:100B60008F4F9F4F16C0882311F096E911C077234D
:100B700021F09EE8872F762F05C0662371F096E856
:100B8000862F70E060E02AF09A95660F771F881F25
:100B9000DAF7880F9695879597F9089597F99F67E3
:100BA00080E870E060E008959FEF80EC08950024F5
:100BB0000A941616170618060906089500240A94C2
:100BC00012161306140605060895092E0394000C48
:100BD00011F4882352F0BB0F40F4BF2B11F460FFD7
:100BE00004C06F5F7F4F8F4F9F4F089557FD905800
:100BF000440F551F59F05F3F71F04795880F97FBE1
:100C0000991F61F09F3F79F087950895121613069A
:100C10001406551FF2CF4695F1DF08C016161706C9
:100C20001806991FF1CF86957105610508940895FE
:100C3000E894BB2766277727CB0197F908950BD057
:100C4000C4CFB5DF28F0BADF18F0952309F0A6CF9E
:100C5000ABCF1124EECFCADFA0F3959FD1F3950F50
:100C600050E0551F629FF001729FBB27F00DB11D30
:100C7000639FAA27F00DB11DAA1F649F6627B00DC0
:100C8000A11D661F829F2227B00DA11D621F739FA9
:100C9000B00DA11D621F839FA00D611D221F749FB7
:100CA0003327A00D611D231F849F600D211D822FFE
:100CB000762F6A2F11249F5750408AF0E1F0882345
:100CC0004AF0EE0FFF1FBB1F661F771F881F915052
:100CD0005040A9F79E3F510570F060CFAACF5F3F0B
:100CE000ECF3983EDCF3869577956795B795F79585
:100CF000E7959F5FC1F7FE2B880F911D969587950D
:100D000097F9089597FB072E16F4009406D077FD07
:100D100008D01AD007FC05D03EF4909581959F4FDE
:100D20000895709561957F4F0895A29FB001B39F7C
:100D3000C001A39F700D811D1124911DB29F700DE4
:100D4000811D1124911D0895AA1BBB1B51E107C0F1
:100D5000AA1FBB1FA617B70710F0A61BB70B881F4B
:100D6000991F5A95A9F780959095BC01CD010895DA
:100D70008F929F92AF92BF92CF92DF92EF92FF92AB
:100D8000CF93DF93EC01688179818A819B81611522
:100D900071058105910521F464E279ED8BE597E019
:100DA0002DE133EF41E050E038D049015A019B0179
:100DB000AC01A7EAB1E44DD06B017C01ACEEB4EF1D
:100DC000A501940152D0DC01CB018C0D9D1DAE1DFF
:100DD000BF1DB7FF03C00197A109B048888399835D
:100DE000AA83BB839F77DF91CF91FF90EF90DF9035
:100DF000CF90BF90AF909F908F900895B9CF80E033
:100E000091E0B6CFA0E0B0E08093000190930101A3
:100E1000A0930201B09303010895052E97FB16F4E9
:100E200000940FD057FD05D024D007FC02D046F423
:100E300008C050954095309521953F4F4F4F5F4FDB
:100E4000089590958095709561957F4F8F4F9F4F36
:100E500008956BDFA59F900DB49F900DA49F800D0A
:100E6000911D11240895B7FFF4CFF3DF821B930B7C
:100E70000895A1E21A2EAA1BBB1BFD010DC0AA1FDB
:100E8000BB1FEE1FFF1FA217B307E407F50720F0F3
:100E9000A21BB30BE40BF50B661F771F881F991F6E
:100EA0001A9469F760957095809590959B01AC01B7
:0A0EB000BD01CF010895F894FFCFB3
:100EBA00010000001030206040C08090010302064B
:100ECA00040C0809C30000003700460082003700FE
:0A0EDA008C00370037000100000013
:00000001FF
