S01700004763634170706C69636174696F6E322E737265635A
S113000045C0000060C000005EC000005CC000008D
S11300105AC0000058C0000056C0000054C0000080
S113002052C0000050C000004EC000004CC0000090
S11300304AC000005AC1000046C0000044C000008D
S113004042C0000040C000003EC0000013C30000D6
S11300503AC0000038C0000036C0000034C00000C0
S113006032C0000030C000002EC000002CC00000D0
S11300702AC0000028C0000026C0000024C00000E0
S113008022C0000020C000001EC0000011241FBEBA
S1130090CFEFD0E4DEBFCDBF11E0A0E0B1E0EEE1F0
S11300A0F7E000E00BBF02C007900D92A233B10746
S11300B0D9F721E0A2E3B1E001C01D92A034B20758
S11300C0E1F7E7D22AC39CCF8FEE8BB90000489B9F
S11300D029C0499B29C04A9B29C04B9B29C08FED4D
S11300E08BB90000489B26C0499B26C04A9B26C06A
S11300F04B9B26C08FEB8BB90000489B23C0499BC8
S113010023C04A9B23C04B9B23C08FE78BB90000BD
S1130110489B20C0499B20C04A9B20C04B9B20C0C9
S113012080E0089581E3089584E3089587E30895C2
S11301308AE2089582E3089585E3089588E30895A3
S113014080E3089583E3089586E3089589E3089599
S113015083E2089581E4089582E4089583E4089590
S113016084E40895181619065CF0089500002150DF
S11301703109E1F74F5F5F4F4817590729F4089594
S113018040E050E077E063E0272F362FEFCF16985A
S113019088B9179A0000179882E090E0E3CF089599
S11301A081E0F5CF089584E690E0DCDF88E3EFDFBB
S11301B086E0EDDF8FE0EBDF81E0E9DF8AE090E0CD
S11301C0D1CF0895169A88B9179A0000179881E03C
S11301D090E0C8CF0895813118F48158D8CF08959C
S11301E08155D5CF08950F931F93CF93DF93182F85
S11301F0EB01D6DF8881882351F001E0010F812FC4
S1130200EADF8991DFDF102F88818111F6CFDF913A
S1130210CF911F910F910895CF92DF92EF92FF92A9
S11302201F93CF93DF931092340180913801882378
S113023009F453C080E01BE0C0913D01D0913E0120
S1130240189FC00DD11D11244D815E816F81788569
S113025089819A81AB81BC81481759076A077B075A
S1130260B0F08881E985FA85082E000C990B099570
S1130270888380913401E0913D01F0913E01189F03
S1130280E00DF11D112415821682178210868091CB
S11302903401E0913D01F0913E01189FE00DF11D04
S11302A01124C580D680E780F084409102015091EA
S11302B0030160910401709105014C0D5D1D6E1DDB
S11302C07F1D45835683678370878F5F80933401D6
S11302D090913801891708F4AFCFDF91CF911F9126
S11302E0FF90EF90DF90CF9008951F920F920FB67A
S11302F00F9211240BB60F922F933F934F935F935A
S11303006F937F938F939F93AF93BF93EF93FF93D9
S11303108091390190913A01A0913B01B0913C0147
S11303200197A109B1098093390190933A01A093EF
S11303303B01B0933C01892B8A2B8B2B89F46CDF16
S11303408091020190910301A0910401B0910501F3
S11303508093390190933A01A0933B01B0933C01FF
S1130360FF91EF91BF91AF919F918F917F916F9189
S11303705F914F913F912F910F900BBE0F900FBE45
S11303800F901F9018958BE0809381008AE090E095
S1130390909389008093880082E080936F0010928C
S11303A08500109284008091020190910301A09134
S11303B00401B09105018093390190933A01A0930F
S11303C03B01B0933C018FB780688FBF089580EBE9
S11303D084B981E58CBD789408958EBD85B115B836
S11303E00DB407FEFDCF2C9A0895029708F03FC183
S11303F080913301813009F048C08091000181303F
S113040071F480913501823010F010923501E09141
S11304103501F0E0E15DFE4F8081DFDF2FC08230E7
S113042071F480913501823010F010923501E09121
S11304303501F0E0E35DFE4F8081CFDF1FC08330E4
S113044071F4809135018F3010F010923501E091F4
S11304503501F0E0E25EFE4F8081BFDF0FC08430E3
S113046069F480913501823010F010923501E091E9
S11304703501F0E0E45EFE4F8081AFDF109233017E
S1130480809135018F5F8093350180910101813026
S113049079F48091360190913701889708F458C017
S11304A081E080933301109237011092360150C0DD
S11304B0823079F48091360190913701449708F4A1
S11304C047C081E0809333011092370110923601C6
S11304D03FC0833071F480913601909137010A97BF
S11304E0B8F181E080933301109237011092360104
S11304F02FC0843071F480913601909137010597B3
S113050038F181E080933301109237011092360163
S11305101FC0853071F480913601909137010297A4
S1130520B8F081E0809333011092370110923601C4
S11305300FC0863069F48091360190913701892B80
S113054039F081E080933301109237011092360123
S1130550BBDD80933201813451F481E0809300014A
S113056087E039DE81E32EDE1092350174C08234D7
S113057051F482E08093000187E02DDE82E322DEE5
S11305801092350168C0833451F483E080930001F4
S113059087E021DE83E316DE109235015CC08434EB
S11305A051F484E08093000187E015DE84E30ADEE1
S11305B01092350150C0813341F48EE00CDE81E3AA
S11305C001DE81E08093010146C0823341F48EE074
S11305D002DE82E3F7DD82E0809301013CC08333D5
S11305E041F48EE0F8DD83E3EDDD83E080930101E7
S11305F032C0843341F48EE0EEDD84E3E3DD84E055
S11306008093010128C0853341F48EE0E4DD85E365
S1130610D9DD85E0809301011EC0863341F48EE06C
S1130620DADD86E3CFDD86E08093010114C08733F1
S113063029F485E1D0DD81E3C5DD0DC0883329F4DB
S113064085E1C9DD82E3BEDD06C0893321F485E19D
S1130650C2DD83E3B7DD80913601909137010196C5
S1130660909337018093360181E090E0089580E013
S113067090E008951F920F920FB60F9211248F935A
S11306808EB580933F018F910F900FBE0F901F90F6
S11306901895CF93DF93CDB7DEB72B970FB6F894A9
S11306A0DEBF0FBECDBF1FEF11B912B817B918B80E
S11306B01AB91BB881E080933801CE01019690935A
S11306C03E0180933D01198385E090E0A0E0B0E015
S11306D08A839B83AC83BD838E839F83A887B987DA
S11306E025EF31E03B872A87809302019093030131
S11306F0A0930401B09305018093390190933A01CA
S1130700A0933B01B0933C013EDE4DDD66E071E019
S111071081E069DD5CDE12B9FFCFF894FFCF03
S113071E0101010000005074726E3A2031205370B2
S113072E643A2031202075433A20310077CC804042
S113073E20100804020102040810204080AA55F07B
S105074E0F0096
S9030000FC
