S01700004763634170706C69636174696F6E312E737265635B
S113000045C0000060C000005EC000005CC000008D
S11300105AC0000058C0000056C0000054C0000080
S113002052C0000050C000004EC000004CC0000090
S11300304AC00000B2C0000046C0000044C0000036
S113004042C0000040C000003EC000003CC00000B0
S11300503AC0000038C0000036C0000034C00000C0
S113006032C0000030C000002EC000002CC00000D0
S11300702AC0000028C0000026C0000024C00000E0
S113008022C0000020C000001EC0000011241FBEBA
S1130090CFEFD0E4DEBFCDBF11E0A0E0B1E0E2EEEF
S11300A0F6E000E00BBF02C007900D92AE30B1073E
S11300B0D9F721E0AEE0B1E001C01D92A232B2074F
S11300C0E1F76ED20CC39CCFCF92DF92EF92FF92F6
S11300D01F93CF93DF9310920F0180911401882313
S11300E009F453C080E01BE0C0911901D0911A01BA
S11300F0189FC00DD11D11244D815E816F817885BB
S113010089819A81AB81BC81481759076A077B07AB
S1130110B0F08881E985FA85082E000C990B0995C1
S1130120888380910F01E0911901F0911A01189FC1
S1130130E00DF11D1124158216821782108680911C
S11301400F01E0911901F0911A01189FE00DF11DC2
S11301501124C580D680E780F0844091020150913B
S1130160030160910401709105014C0D5D1D6E1D2C
S11301707F1D45835683678370878F5F80930F014C
S113018090911401891708F4AFCFDF91CF911F919B
S1130190FF90EF90DF90CF9008951F920F920FB6CB
S11301A00F9211240BB60F922F933F934F935F93AB
S11301B06F937F938F939F93AF93BF93EF93FF932B
S11301C08091150190911601A0911701B091180129
S11301D00197A109B1098093150190931601A09389
S11301E01701B0931801892B8A2B8B2B89F46CDFB0
S11301F08091020190910301A0910401B091050145
S11302008093150190931601A0931701B0931801E0
S1130210FF91EF91BF91AF919F918F917F916F91DA
S11302205F914F913F912F910F900BBE0F900FBE96
S11302300F901F9018958BE0809381008AE090E0E6
S1130240909389008093880082E080936F001092DD
S11302508500109284008091020190910301A09185
S11302600401B09105018093150190931601A093A8
S11302701701B09318018FB780688FBF089581303C
S113028081F0E1ECF0E0808188618083E2ECF0E0D1
S113029080818660808383E38093C4001092C500CC
S11302A00895E9ECF0E0808188618083EAECF0E075
S11302B080818660808383E38093CC001092CD009C
S11302C00895813029F48091C800882384F008952A
S11302D08091C0008823ACF4A6ECB0E0E0ECF0E040
S11302E08C9180930E0180818823D4F30895AEEC21
S11302F0B0E0E8ECF0E08C9180930E0180818823DB
S1130300D4F30895613041F0E0ECF0E0908195FF82
S1130310FDCF8093C6000895E8ECF0E0908195FF4E
S1130320FDCF8093CE000895813041F0E0ECF0E001
S113033080818823ECF78091C6000895E8ECF0E012
S113034080818823ECF78091CE0008951816190651
S11303505CF00895000021503109E1F74F5F5F4FD1
S11303604817590729F4089540E050E077E063E026
S1130370272F362FEFCF5E9888B95F9A00005F98D9
S113038082E090E0E3CF089581E0F5CF089584E61C
S113039090E0DCDF88E3EFDF86E0EDDF8FE0EBDF8A
S11303A081E0E9DF8AE090E0D1CF08955E9A88B9D0
S11303B05F9A00005F9881E090E0C8CF0895813192
S11303C018F48158D8CF08958155D5CF08950F9347
S11303D01F93CF93DF93182FEB01D6DF88818823F7
S11303E051F001E0010F812FEADF8991DFDF102F47
S11303F088818111F6CFDF91CF911F910F910895DC
S11304000F931F93CF9380911B01882381F00BE1FD
S113041011E0C9E08C2FD3DFF80181918F01C6DF91
S1130420F8018081882319F0CF5FCE3099F7CF91FE
S11304301F910F910895CF9380912001823009F488
S11304403AC028F4882361F08130E1F05DC0843043
S113045009F448C008F442C0853009F452C054C0BD
S113046066E071E081E0B3DF4AE050E06BE171E007
S11304708091000190910101F5D0C2DF81E0809369
S1130480200144C08091C00088230CF03FC080E06C
S11304904BDFC82F80E015DF20910001309101016E
S11304A0C9018C0F911D909301018093000184E098
S11304B0809320012BC08091100190911101892B10
S11304C029F583E08093200180910001909101013E
S11304D00196909301018093000118C084E08093F9
S11304E0200114C08091000190910101843691058E
S11304F028F085E08093200115B808C010922001EF
S113050005C01092200102C010922001CF910895DD
S113051080E480937C0087E880937A000895ECE778
S1130520F0E090818770987F892B8083EAE7F0E080
S1130530808180648083808186FDFDCF80917800F6
S113054090917900089580E0EADF9C019093130173
S11305508093120190912101913051F028F0923052
S113056071F09330B1F019C081E0809321010895B6
S11305702B3F3340A0F082E08093210108952B3F6C
S1130580334068F483E08093210161E081E0BACED6
S1130590089581E080932101089510922101089526
S11305A0CF93DF93CDB7DEB766970FB6F894DEBF6F
S11305B00FBECDBF80EF81B98FE082B91FEF14B9B0
S11305C015B817B918B81AB91BB881E085B980E015
S11305D056DE81E054DEDBDE9BDF81E0A0DF8C5958
S11305E09F4F909311018093100182E08093140136
S11305F0CE01019690931A0180931901198384E026
S113060090E0A0E0B0E08A839B83AC83BD838E83BB
S11306109F83A887B9872BE132E03B872A871C8711
S11306208D879E87AF87B88B898B9A8BAB8BBC8B5E
S113063083EA92E09E8B8D8B84E690E0A0E0B0E0AC
S11306408093020190930301A0930401B0930501E8
S11306508093150190931601A0931701B09318018C
S1130660EADDFFCF4532510518F4423008F004C0EA
S1130670FB011082CB010895BB274A3031F4992342
S113068022F4BDE2909581959F4F01C0BB27FB01E9
S11306905527AA27880F991FAA1FA41710F0A41B77
S11306A083955051B9F7A05DAA3308F0A95DA193D1
S11306B0009779F7B111B1931192CB0100C0DC011D
S11306C0FC01672F71917723E1F7329704C07C9185
S11306D06D9370836291AE17BF07C8F30895F894C1
S10506E0FFCF46
S11106E214000100000053636F72653A0000BB
S9030000FC
