S01700004763634170706C69636174696F6E312E737265635B
S113000045C0000060C000005EC000005CC000008D
S11300105AC0000058C0000056C0000054C0000080
S113002052C0000050C000004EC000004CC0000090
S11300304AC00000BDC0000046C0000044C000002B
S113004042C0000040C000003EC0000029C10000C2
S11300503AC0000038C0000036C0000034C00000C0
S113006032C0000030C000002EC000002CC00000D0
S11300702AC0000028C0000026C0000024C00000E0
S113008022C0000020C000001EC0000011241FBEBA
S1130090CFEFD0E4DEBFCDBF11E0A0E0B1E0ECE3F0
S11300A0F3E000E00BBF02C007900D92A430B1074B
S11300B0D9F721E0A4E0B1E001C01D92AD30B20750
S11300C0E1F7FDD039C19CCF029730F480910C0147
S11300D08BB981E090E0089580E090E00895CF929C
S11300E0DF92EF92FF921F93CF93DF93109204015C
S11300F080910501882309F453C080E01BE0C0917E
S11301000A01D0910B01189FC00DD11D11244D81FE
S11301105E816F81788589819A81AB81BC81481722
S113012059076A077B07B0F08881E985FA85082EAC
S1130130000C990B0995888380910401E0910A01D0
S1130140F0910B01189FE00DF11D11241582168208
S11301501782108680910401E0910A01F0910B014D
S1130160189FE00DF11D1124C580D680E780F0842E
S113017040910001509101016091020170910301CD
S11301804C0D5D1D6E1D7F1D4583568367837087EF
S11301908F5F8093040190910501891708F4AFCF14
S11301A0DF91CF911F91FF90EF90DF90CF90089552
S11301B01F920F920FB60F9211240BB60F922F932A
S11301C03F934F935F936F937F938F939F93AF93DB
S11301D0BF93EF93FF938091060190910701A09143
S11301E00801B09109010197A109B10980930601A1
S11301F090930701A0930801B0930901892B8A2BDE
S11302008B2B89F46CDF8091000190910101A09106
S11302100201B09103018093060190930701A0931A
S11302200801B0930901FF91EF91BF91AF919F91A4
S11302308F917F916F915F914F913F912F910F908B
S11302400BBE0F900FBE0F901F9018958BE08093FC
S113025081008DE790E0909389008093880082E08C
S113026080936F00109285001092840080910001A9
S113027090910101A0910201B091030180930601C4
S113028090930701A0930801B09309018FB7806888
S11302908FBF089580E484B980EC8CBD7894089570
S11302A01F920F920FB60F9211248F938EB58093E5
S11302B00C018F910F900FBE0F901F901895CF9344
S11302C0DF93CDB7DEB72B970FB6F894DEBF0FBE22
S11302D0CDBF8FEF81B912B88AB91BB891E0909362
S11302E005019E012F5F3F4F30930B0120930A01BC
S11302F0898382E090E0A0E0B0E08A839B83AC83B2
S1130300BD838E839F83A887B98724E630E03B872B
S11303102A878093000190930101A0930201B09376
S113032003018093060190930701A0930801B09301
S10F033009018CDFAFDFFFCFF894FFCF92
S107033C01000000B8
S9030000FC
